:020000040800F2
:10000000A0040020AD0100086713000819120008C1
:1000100065130008B9030008E3160008000000009B
:100020000000000000000000000000008B1300082A
:10003000BB03000800000000891300088D130008AE
:10004000C7010008C7010008C7010008C701000870
:10005000C7010008C7010008C7010008C701000860
:10006000C7010008C7010008C7010008C701000850
:10007000C7010008C7010008C7010008C701000840
:10008000C7010008C7010008C70100080000000000
:10009000000000000000000000000000C701000890
:1000A000C7010008C7010008C7010008C701000810
:1000B000C7010008C7010008C7010008C701000800
:1000C000C7010008C7010008C7010008C7010008F0
:1000D000C7010008C7010008C701000800000000B0
:1000E000C7010008C7010008C701000800000000A0
:1000F000000000000000000000000000C701000830
:1001000000000000C7010008C7010008C70100087F
:1001100000000000000000000000000000000000DF
:10012000C7010008C7010008C7010008C70100088F
:10013000C7010008000000000000000000000000EF
:10014000000000000000000000000000C7010008DF
:10015000C7010008C7010008C7010008C70100085F
:10016000C7010008C70100080000000000000000EF
:10017000000000000000000000000000000000007F
:1001800000000000C701000800000000000000009F
:10019000C7010008C7010008DFF80CD000F068F8BC
:1001A0000048004705170008A004002006488047C3
:1001B00006480047FEE7FEE7FEE7FEE7FEE7FEE74C
:1001C000FEE7FEE7FEE7FEE73914000899010008A4
:1001D0002DE9F05F0546002092469B46884606467C
:1001E000814640241BE0284641464746224600F00F
:1001F0002FF853465A46C01A914110D3114618465B
:10020000224600F016F82D1A67EB01084F462246E9
:100210000120002100F00DF817EB00094E41201ECF
:10022000A4F10104DFDC484631462A464346BDE8D6
:10023000F09F202A04DB203A00FA02F100207047E8
:100240009140C2F1200320FA03F319439040704714
:10025000202A04DB203A21FA02F00021704721FA1B
:1002600002F3D040C2F12002914008431946704782
:10027000064C074D06E0E06840F0010394E80700F3
:1002800098471034AC42F6D3FFF78AFFF017000806
:1002900010180008454910B54A6822F440324A60F7
:1002A0004A6843681A434A6001684A6822F48072C7
:1002B0004A6001684A68036942EA03224A600168A9
:1002C0004A6822F040724A6001684A6883681A43AB
:1002D0004A6001688A6822F400628A6001688A685C
:1002E000C3681A438A60816A6FF07062D142016804
:1002F0008A6822F070628A6001688A680CD0836A1A
:100300001A438A6001688A6822F040528A60016854
:100310008A68C36A1A4301E022F040528A60016889
:100320008A6822F002028A6001688A68836942EA68
:1003300043028A60016A002901684A680FD042F4CA
:1003400000624A6001684A6822F460424A600168BB
:100350004A68174C436A04EB43331A4301E022F422
:1003600000624A600168CA6A22F47002CA620168C7
:10037000CA6A838B0F4C04EB03531A43CA620168A9
:100380008A6822F400728A6001688A68036B42EA14
:1003900043228A6001688A6822F480628A60016868
:1003A0008A68406942EA8020886010BD00230140CD
:1003B00000E0FFFF0000F0FFFEE7704778B5002483
:1003C000009490F83C20012A19D0012280F83C20AA
:1003D0000A6807230568092A13D9EE680A3A02EB6E
:1003E000420293409E43EE600A788B680A3A02EB21
:1003F000420293400268D5682B43D36010E002208C
:1004000078BD2E6902EB420293409E432E610A782A
:100410008B6802EB42029340026815692B4313611B
:100420004A681F23072A13D205686E6B521E02EB1F
:10043000820293409E436E630B790A885B1E92B2E0
:1004400003EB83039A4003685D6B2A435A6327E0FA
:1004500005680D2A12D22E6BD21F02EB8202934046
:100460009E432E630B790A88DB1F92B203EB830352
:100470009A4003681D6B2A431A6311E0EE6A0D3A35
:1004800002EB820293409E43EE620B790A880D3B99
:1004900092B203EB83039A400368DD6A2A43DA626F
:1004A000174B0568154A9D4206D10D68122D03D1E0
:1004B000556845F48005556005689D4219D1114D78
:1004C0000B68AB4201D0112B13D1536843F40003E6
:1004D00053600968A9420CD10B490C4A0968B1FB69
:1004E000F2F101EB8101490000E0491E0091002971
:1004F000FBD180F83C40002078BD00000023014083
:1005000000200140120000101800002040420F009F
:100510000068C06C704770B504004FF0000503D050
:10052000206C002610B107E0012070BD666484F8DD
:100530003C60204600F01AF8206CC00610D4206CF5
:1005400020F4885040F0020020642046FFF7A2FE0D
:100550006664206C20F0020040F00100206400E09E
:10056000012584F83C60284670BD000000B5006895
:100570000C4987B0884212D10B480021026842F42E
:1005800080720260006800F4807005900220009084
:100590000320CDE901016946044800F0B9F807B02D
:1005A00000BD00000020014044380240000002402D
:1005B0002DE9F041044600680D4681684FF00007C0
:1005C00049050BD58068C00508D5206C40F0200097
:1005D000206484F83C700120BDE8F08100F062F9ED
:1005E00006460FE0681C0DD025B100F05BF9801BBA
:1005F000A84207D9206C40F00400206484F83C70C5
:100600000320E9E7206800688007EBD521686FF0D8
:1006100012000860206C40F400702064206881683B
:1006200011F0405F13D1A16989B9C16A11F4700F4B
:1006300002D0806840050AD4206C20F480702064C9
:10064000206CC00403D4206C40F001002064002022
:10065000C2E7000018B50021009190F83C20012A63
:1006600007D0012280F83C2002689368DB0702D0A3
:1006700011E0022018BD936843F001039360204A03
:10068000204B1268B2FBF3F202EB420200E0521E72
:100690000092002AFBD102689368DB072DD0036C1F
:1006A00040F20164A34343F48073036453685B0521
:1006B00005D5036C23F4005343F480530364036CA7
:1006C000DB0404D5436C23F00603436400E041647B
:1006D00080F83C100C496FF02203136049680068F1
:1006E000C90602D00949884207D1816811F0405FEC
:1006F00003D1816841F080418160002018BD000075
:100700001800002040420F0000230140002001405B
:100710002DE9F84FDFF860B100224FF001084FF0EB
:10072000030A4FF00F090BF1040E00BF0B6808FA23
:1007300002F42340A3426ED14D68022D01D0122D48
:100740000ED1D50800EB850CDCF820505607F70ECB
:1007500009FA07F6B5430E69BE402E43CCF8206077
:10076000066855000F790AFA05FC07F0030726EA28
:100770000C06AF40374307604E68012E05D0022EAD
:1007800003D0112E01D0122E0ED18668CF6826EA32
:100790000C06AF40374387604668A6430C79C4F324
:1007A0000014944034434460C6688C6826EA0C0602
:1007B000AC403443C4604C68E40056D52F4C2568E7
:1007C00045F480452560246822F0030504F4804444
:1007D00000942B4C2E19D6F8084895072F0F09FACC
:1007E00007F5AC43274DA84201D1002515E0264D61
:1007F000A84201D1012510E0244DA84201D10225D3
:100800000BE0234DA84201D1032506E0214DA8426B
:1008100002D1042501E028E00725BD402543C6F8A4
:100820000858DBF800405D464E689C43F60300D54F
:100830001C432C60DEF8004075464E689C43B603AE
:1008400000D51C432C600C4D08352C684E689C4329
:10085000F60200D51C432C60074D0C352C684E6801
:100860009C43B60200D51C432C60521C102AFFF496
:100870005DAFBDE8F88F0000003C01404438024005
:100880000030014000000240000402400008024025
:10089000000C0240001002400069084000D0012016
:1008A0007047000001488068704700000C0000207D
:1008B0000248816802781144816070470C00002072
:1008C0000B4810B5016841F400710160016841F402
:1008D00080610160016841F480710160032000F0D3
:1008E0008BF8002000F006F800F024F8002010BD7E
:1008F000003C024070B50D4D04464FF47A712878E3
:10090000B1FBF0F00A490968B1FBF0F000F0E5FA3C
:1009100048B9102C07D200222146501E00F04CF896
:1009200000206C6070BD012070BD00000C00002034
:10093000180000201F4808B5016841F4804101609B
:10094000006800F4804000901A48001F016841F0E0
:1009500080510160006800F080500090032000F09A
:100960004BF8002211466FF00B0000F025F8002232
:1009700011466FF00A0000F01FF8002211466FF0D8
:10098000090000F019F800221146501F00F014F879
:1009900000221146101F00F00FF800221146901E91
:1009A00000F00AF80022BDE808401146501E00F091
:1009B00003B8000044380240F0B40E4B1B680C46EC
:1009C000C3F30223C3F10705042D00D90425191D23
:1009D000072901D2002300E0DB1E012606FA05F1FB
:1009E000491E214099409E40761E16403143F0BC7E
:1009F00000F0BABC0CED00E0064900F00702086800
:100A00004FF6FF03184040EA0220034A10430860F3
:100A1000704700000CED00E00000FA052DE9F047FA
:100A20000E46050065D0DFF81481D8F80000F7B253
:100A300000F00F00B04207D288F80070D8F800002C
:100A400000F00F00B04254D128683D4C810712D508
:100A5000400703D5206840F4E05020602878000764
:100A600003D5206840F4604020602068A96820F029
:100A7000F000084320602878C0072DD0304968680E
:100A80000839012812D0022813D0032811D0096890
:100A9000890700292DDA216821F003010143216033
:100AA000FFF700FF814641F2883A0EE009688903AA
:100AB000EFE709688901ECE7FFF7F4FEA0EB090115
:100AC000514502D90320BDE8F0872068696800F02D
:100AD0000C00B0EB810FEFD1D8F80010404601F0C8
:100AE0000F01B14207D90770006800F00F00B04253
:100AF00001D00120E7E72878400705D52068E9689C
:100B000020F4E050084320602878000706D52068CC
:100B1000296920F4604040EAC100206000F01CF820
:100B20002168084AC1F30311515CC84006490860B6
:100B30000020FFF7DFFE0020C5E70000003C024078
:100B400008380240E017000818000020014800683B
:100B50007047000018000020104810B5006810F021
:100B60000C010F4818D0042916D0082914D10B4CB9
:100B7000241F216801F03F02216821680023C1F38E
:100B80008811A1FB0001FFF723FB2168C1F301419C
:100B9000491C4900B0FBF1F010BD000008380240CC
:100BA0000024F4002DE9F84F050076D02878DFF80E
:100BB000F8B2BE4CC00749D0DBF800105846C1F36C
:100BC0008101012908D00068C0F3810002280AD100
:100BD000201D0068400206D52068800336D568686D
:100BE0000028E2D032E06868B0F5803F10D0B0F560
:100BF000A02F206810D020F480302060206820F4DE
:100C0000802020606868A0B1FFF74CFE06460CE02B
:100C1000206840F48030F4E740F480202060F7E75B
:100C2000FFF740FE801B642873D820688003F7D547
:100C30000CE0FFF737FE064605E000BFFFF732FE87
:100C4000801B6428F0D820688003F7D42878DFF868
:100C5000608280074FF000093ED5DBF8001058464F
:100C600011F00C0F09D00068C0F3810002280BD1ED
:100C70008D48001F0068400206D42068800715D503
:100C8000E868012809D111E0E868B8B10120C8F886
:100C90000000FFF707FE064605E002E1FFF702FE4F
:100CA000801B0228C0D820688007F7D520682969F2
:100CB00020F0F80040EAC10020600DE0C8F8009084
:100CC000FFF7F0FD064604E0FFF7ECFD801B02286D
:100CD0001FD820688007F7D42878000722D5724EE5
:100CE000744869696C3671B101210160FFF7DAFD62
:100CF000074604E0FFF7D6FDC01B022809D830687C
:100D00008007F7D50EE0C0F80090FFF7CBFD07464F
:100D100005E083E0FFF7C6FDC01B02287ED83068DF
:100D20008007F7D42878400768D5DFF87CA1002732
:100D30000AF1380ADAF80000C0000BD4DAF8001023
:100D400041F08051CAF80010DAF80000012700F0E5
:100D500080500090584E3068C00510D4306840F480
:100D600080703060FFF79EFD009005E0FFF79AFD70
:100D70000099401A022851D83068C005F6D54A4E6D
:100D8000A868683601280FD00528306810D020F0F8
:100D900001003060306820F004003060A868B8B10D
:100DA000FFF780FD00900FE0306840F00100F4E7AD
:100DB00040F004003060F7E7FFF774FD0099411A36
:100DC00041F28830814264D830688007F4D50EE063
:100DD000FFF768FD009007E0FFF764FD0099411AF6
:100DE00041F28830814254D830688007F4D42FB162
:100DF000DAF8001021F08051CAF80010A869C0B3D9
:100E0000DBF80010C1F3810102294AD002284846CC
:100E100007D0C8F86000FFF745FD00E039E005465F
:100E20003AE04746C8F86000FFF73CFD064604E09C
:100E3000FFF738FD801B02282BD820688001F7D4EB
:100E4000D5E907010843A96A1C4A490802EB014198
:100E50006A6A41EA8211084395F82C1040EA016160
:100E60001148001F016001203866FFF71BFD054691
:100E700005E014E0FFF716FD401B022809D82068A2
:100E80008001F7D50BE000BFFFF70CFD401B0228E7
:100E900002D90320BDE8F88F20688001F4D4002037
:100EA000F8E70120F6E70000083802400038024069
:100EB00000004742800E4742007000400000FFFFE4
:100EC0004FF0E0210428086903D020F004000861F5
:100ED000704740F00400FAE7704710B5401EB0F1CB
:100EE000807F01D3012010BD4FF0E02460610F210D
:100EF000601700F039FA0020A0610720206100206F
:100F000010BD10B5FFF7E8FF10BD30B590F83820E0
:100F1000012A20D0012280F83820022380F83930BD
:100F200003685C6824F070045C6003685C680D68AA
:100F30002C435C6003689C6824F080049C60036818
:100F40009C6849680C439C6080F83920002180F837
:100F50003810084630BD022030BD10B5040003D063
:100F600094F8390010B107E0012010BD002084F88A
:100F70003800204600F00CF8022084F83900211DCA
:100F8000206800F083FA012084F83900002010BDA9
:100F900008B500680649884208D10648016841F052
:100FA00004010160006800F00400009008BD00002A
:100FB000000800404038024070B5044690F8380000
:100FC000012817D0012584F83850022084F8390010
:100FD0002068826822F0770222F47F4282600868EB
:100FE000502837D00DDC202859D005DC88B31028D4
:100FF00041D151E0022070BD302853D040283AD171
:101000003FE060282ED070280BD0B0F5805F03D071
:10101000B0F5005F2FD110E02068816821F0070152
:1010200015E0CB68D1E90121206800F082FA21683F
:10103000886840F0770088601DE0CB68D1E9012125
:10104000206800F076FA2068816841F48041816070
:1010500011E01EE0CA684968206800F01FFB5021BB
:10106000206806E0CA684968206800F028FB602113
:10107000206800F068FA84F83950002084F83800BD
:1010800070BDCA684968206800F008FB40212068EC
:10109000EFE700212068ECE710212068E9E7202134
:1010A0002068E6E730212068E3E7000000B500682B
:1010B000094985B088420CD14FF47040009002205D
:1010C0000021CDE90101CDE9031069460348FFF78E
:1010D0001FFB05B000BD000000080040000C0240EE
:1010E00070B5044690F838000D4601280DD0012651
:1010F00084F83860022084F8390042B1042A18D0FC
:10110000082A2AD00C2A4DD139E0022070BD20686F
:1011100000F022FA2068816941F0080181612068AD
:10112000816921F004018161206881692A69114384
:1011300011E0206800F038FA2068816941F400610C
:1011400081612068816921F4806181612068816901
:101150002A6941EA0221816124E0206800F050FA06
:101160002068C16941F00801C1612068C16921F0AE
:101170000401C1612068C1692A69114311E0206836
:1011800000F06AFA2068C16941F40061C161206819
:10119000C16921F48061C1612068C1692A6941EA9D
:1011A0000221C16184F83960002084F8380070BDE4
:1011B00010B5040003D094F8390010B107E0012005
:1011C00010BD002084F83800204600F00CF8022002
:1011D00084F83900211D206800F058F9012084F8B6
:1011E0003900002010BD704710B504460068012288
:1011F00000F094F907492068884203D1416C41F41A
:10120000004141642068016841F001010160002053
:1012100010BD000000000140FEE700007FB512484D
:101220001049002401604FF48031C0E90114012508
:10123000046185610D490462C0E90A14C460C56196
:1012400045610463FFF767F900B1FEE70095CDE95A
:10125000015469460448FFF7B1F8002800D0FEE7C2
:101260007FBD0000002001401C0000200100000F95
:10127000124800B5026887B0002142F08002026087
:10128000026802F080020592026842F001020260E8
:10129000026802F001020592026842F00802026050
:1012A0000068029100F0080005900120CDE90001DE
:1012B00069460348FFF72CFA07B000BD30380240FA
:1012C0000000024010B526488EB024490024C0E931
:1012D00000144FF6FF71C0E902410461FFF73DFEC3
:1012E00000B1FEE74FF48050079007A91C48FFF7B4
:1012F00063FE00B1FEE71A48FFF75AFF00B1FEE7B0
:101300000B940BA916480C94FFF7FFFD00B1FEE704
:101310006020CDE90004029400226946104804943C
:10132000FFF7DEFE00B1FEE7042269460C48FFF736
:10133000D7FE00B1FEE7082269460948FFF7D0FE54
:1013400000B1FEE70C2269460548FFF7C9FE00B16F
:10135000FEE70348FFF7AAFE0EB010BD00080040EC
:1013600064000020FEE770470907090E002806DA2E
:1013700000F00F0000F1E02080F8141D704700F12C
:10138000E02080F8001470477047704710B5FFF7F1
:101390008FFABDE81040FFF7B4BD000030B5244817
:1013A00093B00025016841F080510160006800F0B1
:1013B000805011901F48016841F44041016000686D
:1013C000022400F44040119001200090000401909C
:1013D0008001CDE906401020089040F247100990A6
:1013E00004200A900B906846FFF7DCFB00B1FEE793
:1013F0000CA90F2081E831004FF4A0500F901090FD
:1014000002210CA8FFF70AFB00B1FEE7FFF79EFBE5
:101410004FF47A71B0FBF1F0FFF75FFD0420FFF7A6
:101420004FFD00221146501EFFF7C6FA13B030BD23
:1014300040380240007000401048016841F47001DB
:1014400001600F48016841F0010101600C4A002170
:101450000832116002680B4B1A400260031D0A4AF1
:101460001A60026822F48022026005480C30016094
:1014700002495806803908607047000088ED00E096
:1014800000380240FFFFF6FE10300024F0B502687D
:101490001B4B1C4C9F031C4D1C4E984207D0B8425E
:1014A00005D0A04203D0A84201D0B04204D122F01E
:1014B000700C4A6842EA0C02984210D0B8420ED032
:1014C000A0420CD0A8420AD0B04208D0104CA04292
:1014D00005D0104CA04202D00F4CA04203D122F400
:1014E0004074CA68224302608A68C2620A688262E3
:1014F000984201D10969016301214161F0BD0000F9
:10150000000001400004004000080040000C0040C2
:1015100000400140004401400048014010B5012353
:10152000046A8B409C430462036A8A40134303624B
:1015300010BD10B5846842EA032224F47F440A43B4
:101540002243826010BD826822F070020A4342F09A
:10155000070181607047000030B5026A22F0010285
:101560000262026A4368846924F073050C682C43A4
:1015700022F002058A682A430A4DA8420BD122F0C4
:101580000805CA6823F440732A434D6922F0040217
:101590001D438B692B434360846149684163026248
:1015A00030BD00000000014030B5026A22F0100298
:1015B0000262026A436884690D6824F4E64444EADE
:1015C00005248D6822F0200242EA05120B4DA84244
:1015D0000ED1CD6822F0800242EA05124D6923F453
:1015E000406343EA85038D6922F0400243EA8503A4
:1015F0004360846149688163026230BD000001403C
:1016000030B5026A22F480720262036A4268C469D9
:1016100023F4007324F073050C682C438D6843EAAF
:1016200005230C4DA8420ED1CD6823F4006343EA94
:1016300005234D6922F4405242EA05128D6923F4D4
:10164000806342EA05124260C4614968C163036273
:1016500030BD00000000014030B5026A22F4805223
:101660000262046A4268C3690D6823F4E64343EAF0
:1016700005238D6824F4005444EA0534064DA8423D
:1016800004D14D6922F4804242EA85124260C3616E
:1016900049680164046230BD0000014010B5036A6E
:1016A000046A24F001040462846924F0F00444EA2A
:1016B000021423F00A020A438461026210BD10B5CD
:1016C000036A23F0100303628369046A23F47043FE
:1016D00043EA023224F0A00343EA0111826101626D
:1016E00010BDFEE702E008C8121F08C1002AFAD1A7
:1016F00070477047002001E001C1121F002AFBD192
:1017000070470000FFF7DCF8FFF748FEFFF7B0FD79
:10171000FFF7D8FDFFF782FD04212D48FFF764FD98
:1017200008212B48FFF760FD0C212948FFF75CFDDD
:1017300000212748FFF758FD25484838FEF78AFF63
:1017400024494CF2503008600F1DDFF88CB03E1D6C
:10175000224C40F24C484FF0000A4FF6E85506F193
:10176000040901215846FFF797F890B1A068A842F4
:1017700001DDC4F800A0002802DA0121216004E0A4
:101780002168012901D011B103E0401C00E0401E96
:10179000A060A06838600E484FF47A714838FEF7B0
:1017A00007FF0B484838FEF7B3FE6060404501D99B
:1017B000514607E04FF6E85141434FF49662B1FBC2
:1017C000F2F1691A316036214843C9F80000C8E7D0
:1017D00064000020340800400000024000000020A7
:1017E00000000000000000000102030406070809D1
:1017F00010180008000000201C000000E41600087B
:101800002C1800081C00002084040000F4160008B6
:1018100001000000000000000000000001000000C6
:0C18200010000000000000000024F40094
:040000050800019955
:00000001FF
