:020000040800F2
:10000000E0040020AD0100080B1600084F140008A2
:1000100009160008B90300089F1900080000000035
:100020000000000000000000000000002F16000883
:10003000BB030008000000002D1600083116000860
:10004000C7010008C7010008C7010008C701000870
:10005000C7010008C7010008C7010008C701000860
:10006000C7010008C7010008C7010008C701000850
:10007000C7010008C7010008C7010008C701000840
:10008000C7010008C7010008C70100080000000000
:10009000000000000000000000000000C701000890
:1000A000C7010008C7010008C7010008C701000810
:1000B00031170008C70100083D170008C7010008F4
:1000C000C7010008C7010008C7010008C7010008F0
:1000D000C7010008C7010008C701000800000000B0
:1000E000C7010008C7010008C701000800000000A0
:1000F000000000000000000000000000C701000830
:1001000000000000C7010008C7010008C70100087F
:1001100000000000000000000000000000000000DF
:10012000C7010008C7010008C7010008C70100088F
:10013000C7010008000000000000000000000000EF
:10014000000000000000000000000000C7010008DF
:10015000C7010008C7010008C7010008C70100085F
:10016000C7010008C70100080000000000000000EF
:10017000000000000000000000000000000000007F
:1001800000000000C701000800000000000000009F
:10019000C7010008C7010008DFF80CD000F068F8BC
:1001A00000480047C1190008E004002006488047C5
:1001B00006480047FEE7FEE7FEE7FEE7FEE7FEE74C
:1001C000FEE7FEE7FEE7FEE7DD16000899010008FE
:1001D0002DE9F05F0546002092469B46884606467C
:1001E000814640241BE0284641464746224600F00F
:1001F0002FF853465A46C01A914110D3114618465B
:10020000224600F016F82D1A67EB01084F462246E9
:100210000120002100F00DF817EB00094E41201ECF
:10022000A4F10104DFDC484631462A464346BDE8D6
:10023000F09F202A04DB203A00FA02F100207047E8
:100240009140C2F1200320FA03F319439040704714
:10025000202A04DB203A21FA02F00021704721FA1B
:1002600002F3D040C2F12002914008431946704782
:10027000064C074D06E0E06840F0010394E80700F3
:1002800098471034AC42F6D3FFF78AFFA81A00084B
:10029000C81A0008454910B54A6822F440324A603D
:1002A0004A6843681A434A6001684A6822F48072C7
:1002B0004A6001684A68036942EA03224A600168A9
:1002C0004A6822F040724A6001684A6883681A43AB
:1002D0004A6001688A6822F400628A6001688A685C
:1002E000C3681A438A60816A6FF07062D142016804
:1002F0008A6822F070628A6001688A680CD0836A1A
:100300001A438A6001688A6822F040528A60016854
:100310008A68C36A1A4301E022F040528A60016889
:100320008A6822F002028A6001688A68836942EA68
:1003300043028A60016A002901684A680FD042F4CA
:1003400000624A6001684A6822F460424A600168BB
:100350004A68174C436A04EB43331A4301E022F422
:1003600000624A600168CA6A22F47002CA620168C7
:10037000CA6A838B0F4C04EB03531A43CA620168A9
:100380008A6822F400728A6001688A68036B42EA14
:1003900043228A6001688A6822F480628A60016868
:1003A0008A68406942EA8020886010BD00230140CD
:1003B00000E0FFFF0000F0FFFEE7704778B5002483
:1003C000009490F83C20012A19D0012280F83C20AA
:1003D0000A6807230568092A13D9EE680A3A02EB6E
:1003E000420293409E43EE600A788B680A3A02EB21
:1003F000420293400268D5682B43D36010E002208C
:1004000078BD2E6902EB420293409E432E610A782A
:100410008B6802EB42029340026815692B4313611B
:100420004A681F23072A13D205686E6B521E02EB1F
:10043000820293409E436E630B790A885B1E92B2E0
:1004400003EB83039A4003685D6B2A435A6327E0FA
:1004500005680D2A12D22E6BD21F02EB8202934046
:100460009E432E630B790A88DB1F92B203EB830352
:100470009A4003681D6B2A431A6311E0EE6A0D3A35
:1004800002EB820293409E43EE620B790A880D3B99
:1004900092B203EB83039A400368DD6A2A43DA626F
:1004A000174B0568154A9D4206D10D68122D03D1E0
:1004B000556845F48005556005689D4219D1114D78
:1004C0000B68AB4201D0112B13D1536843F40003E6
:1004D00053600968A9420CD10B490C4A0968B1FB69
:1004E000F2F101EB8101490000E0491E0091002971
:1004F000FBD180F83C40002078BD00000023014083
:1005000000200140120000101800002040420F009F
:100510000068C06C704770B504004FF0000503D050
:10052000206C002610B107E0012070BD666484F8DD
:100530003C60204600F01AF8206CC00610D4206CF5
:1005400020F4885040F0020020642046FFF7A2FE0D
:100550006664206C20F0020040F00100206400E09E
:10056000012584F83C60284670BD000000B5006895
:100570000C4987B0884212D10B480021026842F42E
:1005800080720260006800F4807005900220009084
:100590000320CDE901016946044800F0B9F807B02D
:1005A00000BD00000020014044380240000002402D
:1005B0002DE9F041044600680D4681684FF00007C0
:1005C00049050BD58068C00508D5206C40F0200097
:1005D000206484F83C700120BDE8F08100F066F9E9
:1005E00006460FE0681C0DD025B100F05FF9801BB6
:1005F000A84207D9206C40F00400206484F83C70C5
:100600000320E9E7206800688007EBD521686FF0D8
:1006100012000860206C40F400702064206881683B
:1006200011F0405F13D1A16989B9C16A11F4700F4B
:1006300002D0806840050AD4206C20F480702064C9
:10064000206CC00403D4206C40F001002064002022
:10065000C2E7000018B50021009190F83C20012A63
:1006600007D0012280F83C2002689368DB0702D0A3
:1006700011E0022018BD936843F001039360204A03
:10068000204B1268B2FBF3F202EB420200E0521E72
:100690000092002AFBD102689368DB072DD0036C1F
:1006A00040F20164A34343F48073036453685B0521
:1006B00005D5036C23F4005343F480530364036CA7
:1006C000DB0404D5436C23F00603436400E041647B
:1006D00080F83C100C496FF02203136049680068F1
:1006E000C90602D00949884207D1816811F0405FEC
:1006F00003D1816841F080418160002018BD000075
:100700001800002040420F0000230140002001405B
:100710002DE9F84FDFF860B100224FF001084FF0EB
:10072000030A4FF00F090BF1040E00BF0B6808FA23
:1007300002F42340A3426ED14D68022D01D0122D48
:100740000ED1D50800EB850CDCF820505607F70ECB
:1007500009FA07F6B5430E69BE402E43CCF8206077
:10076000066855000F790AFA05FC07F0030726EA28
:100770000C06AF40374307604E68012E05D0022EAD
:1007800003D0112E01D0122E0ED18668CF6826EA32
:100790000C06AF40374387604668A6430C79C4F324
:1007A0000014944034434460C6688C6826EA0C0602
:1007B000AC403443C4604C68E40056D52F4C2568E7
:1007C00045F480452560246822F0030504F4804444
:1007D00000942B4C2E19D6F8084895072F0F09FACC
:1007E00007F5AC43274DA84201D1002515E0264D61
:1007F000A84201D1012510E0244DA84201D10225D3
:100800000BE0234DA84201D1032506E0214DA8426B
:1008100002D1042501E028E00725BD402543C6F8A4
:100820000858DBF800405D464E689C43F60300D54F
:100830001C432C60DEF8004075464E689C43B603AE
:1008400000D51C432C600C4D08352C684E689C4329
:10085000F60200D51C432C60074D0C352C684E6801
:100860009C43B60200D51C432C60521C102AFFF496
:100870005DAFBDE8F88F0000003C01404438024005
:100880000030014000000240000402400008024025
:10089000000C0240001002400069084000D0012016
:1008A00070470AB1816170470904FBE7014880681D
:1008B000704700000C000020024881680278114453
:1008C000816070470C0000200B4810B5016841F4AE
:1008D00000710160016841F480610160016841F4C8
:1008E00080710160032000F097F8002000F006F806
:1008F00000F024F8002010BD003C024070B50D4D02
:1009000004464FF47A712878B1FBF0F00A4909687F
:10091000B1FBF0F000F0F1FA48B9102C07D2002238
:100920002146501E00F058F800206C6070BD012078
:1009300070BD00000C000020180000201F4808B502
:10094000016841F480410160006800F4804000903B
:100950001A48001F016841F080510160006800F0F2
:1009600080500090032000F057F8002211466FF0ED
:100970000B0000F031F8002211466FF00A0000F081
:100980002BF8002211466FF0090000F025F8002234
:100990001146501F00F020F800221146101F00F0F1
:1009A0001BF800221146901E00F016F80022BDE848
:1009B00008401146501E00F00FB8000044380240B5
:1009C00000F01F02012191404009800000F1E02069
:1009D000C0F8001170470000F0B40E4B1B680C46C5
:1009E000C3F30223C3F10705042D00D90425191D03
:1009F000072901D2002300E0DB1E012606FA05F1DB
:100A0000491E214099409E40761E16403143F0BC5D
:100A100000F0FCBD0CED00E0064900F0070208689C
:100A20004FF6FF03184040EA0220034A10430860D3
:100A3000704700000CED00E00000FA052DE9F047DA
:100A40000E46050065D0DFF81481D8F80000F7B233
:100A500000F00F00B04207D288F80070D8F800000C
:100A600000F00F00B04254D128683D4C810712D5E8
:100A7000400703D5206840F4E05020602878000744
:100A800003D5206840F4604020602068A96820F009
:100A9000F000084320602878C0072DD030496868EE
:100AA0000839012812D0022813D0032811D0096870
:100AB000890700292DDA216821F003010143216013
:100AC000FFF7F4FE814641F2883A0EE00968890397
:100AD000EFE709688901ECE7FFF7E8FEA0EB090101
:100AE000514502D90320BDE8F0872068696800F00D
:100AF0000C00B0EB810FEFD1D8F80010404601F0A8
:100B00000F01B14207D90770006800F00F00B04232
:100B100001D00120E7E72878400705D52068E9687B
:100B200020F4E050084320602878000706D52068AC
:100B3000296920F4604040EAC100206000F01CF800
:100B40002168084AC1F30311515CC8400649086096
:100B50000020FFF7D3FE0020C5E70000003C024064
:100B600008380240981A0008180000200148006860
:100B70007047000018000020104810B5006810F001
:100B80000C010F4818D0042916D0082914D10B4C99
:100B9000241F216801F03F02216821680023C1F36E
:100BA0008811A1FB0001FFF713FB2168C1F301418C
:100BB000491C4900B0FBF1F010BD000008380240AC
:100BC0000024F4002DE9F84F050076D02878DFF8EE
:100BD000F8B2BE4CC00749D0DBF800105846C1F34C
:100BE0008101012908D00068C0F3810002280AD1E0
:100BF000201D0068400206D52068800336D568684D
:100C00000028E2D032E06868B0F5803F10D0B0F53F
:100C1000A02F206810D020F480302060206820F4BD
:100C2000802020606868A0B1FFF740FE06460CE017
:100C3000206840F48030F4E740F480202060F7E73B
:100C4000FFF734FE801B642873D820688003F7D533
:100C50000CE0FFF72BFE064605E000BFFFF726FE7F
:100C6000801B6428F0D820688003F7D42878DFF848
:100C7000608280074FF000093ED5DBF8001058462F
:100C800011F00C0F09D00068C0F3810002280BD1CD
:100C90008D48001F0068400206D42068800715D5E3
:100CA000E868012809D111E0E868B8B10120C8F866
:100CB0000000FFF7FBFD064605E002E1FFF7F6FD49
:100CC000801B0228C0D820688007F7D520682969D2
:100CD00020F0F80040EAC10020600DE0C8F8009064
:100CE000FFF7E4FD064604E0FFF7E0FD801B022865
:100CF0001FD820688007F7D42878000722D5724EC5
:100D0000744869696C3671B101210160FFF7CEFD4D
:100D1000074604E0FFF7CAFDC01B022809D8306867
:100D20008007F7D50EE0C0F80090FFF7BFFD07463B
:100D300005E083E0FFF7BAFDC01B02287ED83068CB
:100D40008007F7D42878400768D5DFF87CA1002712
:100D50000AF1380ADAF80000C0000BD4DAF8001003
:100D600041F08051CAF80010DAF80000012700F0C5
:100D700080500090584E3068C00510D4306840F460
:100D800080703060FFF792FD009005E0FFF78EFD68
:100D90000099401A022851D83068C005F6D54A4E4D
:100DA000A868683601280FD00528306810D020F0D8
:100DB00001003060306820F004003060A868B8B1ED
:100DC000FFF774FD00900FE0306840F00100F4E799
:100DD00040F004003060F7E7FFF768FD0099411A22
:100DE00041F28830814264D830688007F4D50EE043
:100DF000FFF75CFD009007E0FFF758FD0099411AEE
:100E000041F28830814254D830688007F4D42FB141
:100E1000DAF8001021F08051CAF80010A869C0B3B8
:100E2000DBF80010C1F3810102294AD002284846AC
:100E300007D0C8F86000FFF739FD00E039E005464B
:100E40003AE04746C8F86000FFF730FD064604E088
:100E5000FFF72CFD801B02282BD820688001F7D4D7
:100E6000D5E907010843A96A1C4A490802EB014178
:100E70006A6A41EA8211084395F82C1040EA016140
:100E80001148001F016001203866FFF70FFD05467D
:100E900005E014E0FFF70AFD401B022809D820688E
:100EA0008001F7D50BE000BFFFF700FD401B0228D3
:100EB00002D90320BDE8F88F20688001F4D4002017
:100EC000F8E70120F6E70000083802400038024049
:100ED00000004742800E4742007000400000FFFFC4
:100EE0004FF0E0210428086903D020F004000861D5
:100EF000704740F00400FAE7704710B5401EB0F1AB
:100F0000807F01D3012010BD4FF0E02460610F21EC
:100F1000601700F07BFB0020A0610720206100200B
:100F200010BD10B5FFF7E8FF10BD7047704730B532
:100F300090F83820012A20D0012280F8382002239E
:100F400080F8393003685C6824F070045C600368E2
:100F50005C680D682C435C6003689C6824F0800426
:100F60009C6003689C6849680C439C6080F8392049
:100F7000002180F83810084630BD022030BD10B581
:100F8000040003D094F8390010B107E0012010BD2F
:100F9000002084F83800204600F00CF8022084F885
:100FA0003900211D206800F0CFFB012084F83900B2
:100FB000002010BD08B501681448B1F1804F14D06D
:100FC000134A914220D1016841F004010160006898
:100FD000002200F00400009011461E20FFF7FCFCE8
:100FE0001E20BDE80840FFF7EBBC016841F001019D
:100FF00001600068002200F00100009011461C20F2
:10100000FFF7EAFC1C20ECE708BD00004038024076
:10101000000800400168CA6842F00102CA60006826
:10102000016841F001010160002070470168CA6851
:1010300022F00102CA600068016A41F211121142F5
:1010400007D1016A9210114203D1016821F0010118
:1010500001600020704770B5044690F83800012800
:1010600017D0012584F83850022084F83900206810
:10107000826822F0770222F47F428260086850285A
:1010800037D00DDC202859D005DC88B3102841D199
:1010900051E0022070BD302853D040283AD13FE0C3
:1010A00060282ED070280BD0B0F5805F03D0B0F54B
:1010B000005F2FD110E02068816821F0070115E062
:1010C000CB68D1E90121206800F091FB2168886894
:1010D00040F0770088601DE0CB68D1E901212068ED
:1010E00000F085FB2068816841F48041816011E057
:1010F0001EE0CA684968206800F02EFC5021206874
:1011000006E0CA684968206800F037FC6021206862
:1011100000F077FB84F83950002084F8380070BD67
:10112000CA684968206800F017FC40212068EFE792
:1011300000212068ECE710212068E9E720212068E1
:10114000E6E730212068E3E7704770B504460068A1
:1011500001694FF00005C943890715D4C168C94327
:10116000890711D4E91E0161012020762068806979
:101170008007204602D0FFF7E7FF04E000F0B2F856
:10118000204600F034F9257620680169C9434907F3
:1011900017D4C168C943490713D46FF00401016132
:1011A000022020762068806910F4407F204602D01B
:1011B000FFF7CAFF04E000F095F8204600F017F9A9
:1011C000257620680169C943090716D4C168C94357
:1011D000090712D46FF0080101610420207620680D
:1011E000C0698007204602D0FFF7AEFF04E000F0A0
:1011F00079F8204600F0FBF8257620680169C9439C
:10120000C90617D4C168C943C90613D46FF01001C9
:101210000161082020762068C06910F4407F2046D4
:1012200002D0FFF791FF04E000F05CF8204600F0E8
:10123000DEF8257620680169C943C90708D1C1686D
:10124000C943C90704D1891E0161204600F0E8F8AE
:1012500020680169C943090609D4C168C943090660
:1012600005D46FF0800101612046FFF75EFE206823
:101270000169C943490609D4C168C943490605D46F
:101280006FF040010161204600F0E0F8206801693C
:10129000C94389060BD4C168C943890607D46FF0D6
:1012A000200101612046BDE87040FFF73FBE70BDE0
:1012B00000B50068094985B088420CD14FF4204040
:1012C000009002200021CDE90101CDE9031069461B
:1012D0000348FFF71DFA05B000BD000000080040FC
:1012E000000C0240704770B5044690F838000D4677
:1012F00001280DD0012684F83860022084F83900D6
:1013000042B1042A18D0082A2AD00C2A4DD139E03B
:10131000022070BD206800F07DFA2068816941F0EC
:10132000080181612068816921F0040181612068E0
:1013300081692A69114311E0206800F093FA20685E
:10134000816941F4006181612068816921F48061D3
:101350008161206881692A6941EA0221816124E072
:10136000206800F0ABFA2068C16941F00801C16152
:101370002068C16921F00401C1612068C1692A693E
:10138000114311E0206800F0C5FA2068C16941F4FA
:101390000061C1612068C16921F48061C161206878
:1013A000C1692A6941EA0221C16184F839600020DB
:1013B00084F8380070BD10B5040003D094F83900EB
:1013C00010B107E0012010BD002084F8380020464D
:1013D00000F00CF8022084F83900211D206800F08C
:1013E000B3F9012084F83900002010BD7047704720
:1013F00010B504460068012200F0EEF907492068A4
:10140000884203D1416C41F4004141642068016885
:1014100041F001010160002010BD0000000001400A
:1014200010B508490068096888420AD100224FF4C3
:10143000A0410548FFF735FABDE810400148FFF725
:10144000F5BD10BD64000020000C02407047FEE7AF
:101450007FB512481049002401604FF48031C0E983
:1014600001140125046185610D490462C0E90A1473
:10147000C460C56145610463FFF74DF800B1FEE744
:101480000095CDE9015469460448FEF797FF00280E
:1014900000D0FEE77FBD0000002001401C000020BE
:1014A0000100000F70B51F4886B00024016841F0AC
:1014B00080010160016801F080010591016841F03F
:1014C00001010160016801F001010591016841F02D
:1014D000080101600068144E00F008000590002229
:1014E0004FF4A0413046FFF7DCF90125CDE9005467
:1014F00069460E480294FFF70BF92803CDE9000571
:101500000220CDE9024069463046FFF701F9A80301
:101510000090CDE90154694630460394FFF7F8F88E
:1015200006B070BD30380240000C0240000002409E
:1015300010B5134886B04FF0804101604AF2104167
:101540000024C0E9011440F2CF71C0E90314FFF791
:1015500016FD00B1FEE74FF4805000906946084840
:10156000FFF779FD00B1FEE7049404A9044805944F
:10157000FFF7DDFC002800D0FEE706B010BD00003C
:101580006400002010B51F488EB01D490024C0E93A
:1015900000144FF6FF71C0E902410461FFF7EFFC50
:1015A00000B1FEE74FF48050079007A91548FFF7F8
:1015B00052FD00B1FEE71348FFF7FDFE00B1FEE764
:1015C0000B940BA90F480C94FFF7B1FC00B1FEE798
:1015D0006020CDE90004029404226946094804947D
:1015E000FFF781FE00B1FEE70C2269460548FFF7D0
:1015F0007AFE00B1FEE70348FFF75AFE0EB010BDB9
:1016000000080040A0000020FEE770470907090E0F
:10161000002806DA00F00F0000F1E02080F8141D29
:10162000704700F1E02080F8001470477047704761
:1016300010B5FFF741F9BDE81040FFF772BC00009C
:1016400030B5244893B00025016841F08051016015
:10165000006800F0805011901F48016841F440413B
:1016600001600068022400F44040119001200090C5
:10167000000401908001CDE906401020089040F25E
:101680004710099004200A900B906846FFF79AFAD9
:1016900000B1FEE70CA90F2081E831004FF4A05003
:1016A0000F90109002210CA8FFF7C8F900B1FEE7D7
:1016B000FFF75CFA4FF47A71B0FBF1F0FFF71DFC15
:1016C0000420FFF70DFC00221146501EFFF784F99D
:1016D00013B030BD4038024000700040104801682F
:1016E00041F4700101600F48016841F0010101609F
:1016F0000C4A00210832116002680B4B1A4002604C
:10170000031D0A4A1A60026822F48022026005481A
:101710000C300160024958068039086070470000AB
:1017200088ED00E000380240FFFFF6FE1030002494
:101730000148FFF70ABD0000640000200148FFF7E0
:1017400004BD0000A0000020F0B502681B4B1C4C3B
:101750009F031C4D1C4E984207D0B84205D0A042B2
:1017600003D0A84201D0B04204D122F0700C4A68E4
:1017700042EA0C02984210D0B8420ED0A0420CD0DF
:10178000A8420AD0B04208D0104CA04205D0104C5C
:10179000A04202D00F4CA04203D122F44074CA6888
:1017A000224302608A68C2620A688262984201D15A
:1017B0000969016301214161F0BD000000000140A1
:1017C0000004004000080040000C004000400140C0
:1017D000004401400048014010B50123046A8B40D9
:1017E0009C430462036A8A401343036210BD10B530
:1017F000846842EA032224F47F440A43224382603D
:1018000010BD826822F070020A4342F00701816035
:101810007047000030B5026A22F001020262026ADB
:101820004368846924F073050C682C4322F0020598
:101830008A682A430A4DA8420BD122F00805CA68DB
:1018400023F440732A434D6922F004021D438B693F
:101850002B434360846149684163026230BD0000EC
:101860000000014030B5026A22F010020262026AF2
:10187000436884690D6824F4E64444EA05248D68CD
:1018800022F0200242EA05120B4DA8420ED1CD688B
:1018900022F0800242EA05124D6923F4406343EAD4
:1018A00085038D6922F0400243EA85034360846129
:1018B00049688163026230BD0000014030B5026AB0
:1018C00022F480720262036A4268C46923F40073DE
:1018D00024F073050C682C438D6843EA05230C4DF6
:1018E000A8420ED1CD6823F4006343EA05234D6975
:1018F00022F4405242EA05128D6923F4806342EAE1
:1019000005124260C4614968C163036230BD0000D2
:101910000000014030B5026A22F480520262046A7B
:101920004268C3690D6823F4E64343EA05238D68E2
:1019300024F4005444EA0534064DA84204D14D690C
:1019400022F4804242EA85124260C3614968016420
:10195000046230BD0000014010B5036A046A24F03F
:1019600001040462846924F0F00444EA021423F0C0
:101970000A020A438461026210BD10B5036A23F0B3
:10198000100303628369046A23F4704343EA02325A
:1019900024F0A00343EA01118261016210BDFEE759
:1019A00002E008C8121F08C1002AFAD17047704728
:1019B000002001E001C1121F002AFBD17047000086
:1019C000FEF782FFFFF73CFEFFF76CFDFFF7DAFD45
:1019D000FFF7AEFDFFF73CFD04212A48FFF708FDA5
:1019E0000C212848FFF704FD26484FF47A7184380B
:1019F000FEF7DEFD244FDFF890800026234CDFF851
:101A000090A040F24C494FF6E8550837A068A8422C
:101A100000DD2660002802DA0121216004E021684F
:101A2000012901D011B103E0401C00E0401EA0607C
:101A3000C8F8000013488438FEF76AFD6060484526
:101A400001D93E6008E04FF6E85148434FF49661F3
:101A5000B0FBF1F0281A38600A488438FEF7FAFD26
:101A600001215046FEF718FF0028CFD005483C382A
:101A7000FFF7D0FA01224FF4A0410648FEF711FF0C
:101A8000C4E70000A000002038080040000000204B
:101A900000000240000C02400000000000000000B6
:101AA0000102030406070809C81A00080000002004
:101AB0001C000000A0190008E41A00081C00002007
:101AC000C4040000B019000801000000000000007C
:101AD00000000000010000001000000000000000F5
:041AE0000024F400EA
:040000050800019955
:00000001FF
