:020000040800F2
:1000000090420020690200086B1D0008711500086D
:10001000691D0008750300082D1F0008000000007E
:10002000000000000000000000000000AD0100081A
:100030003504000800000000010200082D1E000821
:10004000830200088302000883020008830200087C
:10005000830200088302000883020008830200086C
:100060008302000883020008830200087903000865
:100070008503000883020008830200088302000849
:1000800083020008830200088302000800000000C9
:1000900000000000000000000000000083020008D3
:1000A000830200088302000883020008830200081C
:1000B00083020008830200088302000881150008FB
:1000C00075150008830200088302000883020008F7
:1000D0008302000883020008830200080000000079
:1000E0008302000883020008830200080000000069
:1000F0000000000000000000000000008302000873
:100100000000000083020008830200088302000848
:1001100000000000000000000000000000000000DF
:10012000830200088302000883020008830200089B
:100130008302000800000000000000000000000032
:100140000000000000000000000000008302000822
:10015000830200088302000883020008830200086B
:100160008302000883020008000000000000000075
:10017000000000000000000000000000000000007F
:1001800000000000830200080000000000000000E2
:100190008302000883020008DFF80CD000F0D8F8D2
:1001A00000480047B5210008904200202B4B1968F9
:1001B0000868B0E8F04F80F30988BFF36F8F4FF005
:1001C000000080F3118870470000000006480068B6
:1001D000006880F3088862B661B6BFF34F8FBFF343
:1001E0006F8F00DF00BF00BF08ED00E0DFF80C00FC
:1001F000016841F470010160704700BF88ED00E0C4
:10020000EFF30980BFF36F8F144B1A681EF0100FC5
:1002100008BF20ED108A20E9F04F106008B44FF0BD
:10022000500080F31188BFF34F8FBFF36F8F02F040
:10023000AFFB4FF0000080F3118808BC1968086814
:10024000B0E8F04F1EF0100F08BFB0EC108A80F33A
:100250000988BFF36F8F704700BF00BF40000020C8
:10026000EFF30580704700000648804706480047C6
:10027000FEE7FEE7FEE7FEE7FEE7FEE7FEE7FEE756
:10028000FEE7FEE7D91E0008990100082DE9F05F9E
:100290000546002092469B468846064681464024F5
:1002A0001BE0284641464746224600F041F85346A7
:1002B0005A46C01A914110D311461846224600F002
:1002C00028F82D1A67EB01084F462246012000212D
:1002D00000F01FF817EB00094E41201EA4F10104A5
:1002E000DFDC484631462A464346BDE8F09F40EAF7
:1002F00001039B0703D009E008C9121F08C0042AA4
:10030000FAD203E011F8013B00F8013B521EF9D28A
:100310007047202A04DB203A00FA02F100207047DF
:100320009140C2F1200320FA03F319439040704733
:10033000202A04DB203A21FA02F00021704721FA3A
:1003400002F3D040C2F120029140084319467047A1
:10035000064C074D06E0E06840F0010394E8070012
:1003600098471034AC42F6D3FFF71AFF482D000827
:10037000682D0008FEE70000014800F071B8000099
:1003800030010020014800F06BB80000D0000020D0
:1003900001681823CAB2103AB2FBF3F2054B6FF3AF
:1003A0000901032A9B5CC36500D9091D81650846C4
:1003B000704700001C2D000810B5014600208B6915
:1003C0008A6A4FF0C07453B1B3F5005F15D072B1B3
:1003D000012A0CD0022A0AD0032A09D104E01AB15A
:1003E000012A06D0022A03D1C96AC90100D5012019
:1003F00010BDC96AA142FAD010BD002AF7D0012A67
:10040000F2D0022AF3D0032AF3D010BD30B504682D
:10041000256825F480252560046863608368402B87
:10042000036803D099600068C26030BD9A600068BC
:10043000C16030BD704790F83510022903D080218B
:10044000416501207047052180F83510006801687A
:1004500021F00101016000207047406D70470000ED
:100460002DE9F84304464FF00009CDF800906348A9
:100470004FF41651A56D0068B0FBF1F72E6894F8A3
:100480005C10082000FA01F131420FD021680A689F
:1004900052070BD50A6822F004020A6094F85C1037
:1004A0008840A860606D40F00100606594F85C10C1
:1004B0004FF0010808FA01F0304208D0216849697C
:1004C000090604D5A860606D40F00200606594F8EC
:1004D0005C1004208840304208D0216809688907F0
:1004E00004D5A860606D40F00400606594F85C106D
:1004F00010208840304218D021680968090714D5B7
:10050000A86020680168490304D50068000308D585
:10051000A16C07E00168C90503D4016821F0080156
:100520000160216C09B12046884794F85C102020B6
:100530008840304231D021680968C9062DD5A860AD
:1005400094F8350005282068016806D0490347D58E
:10055000006800031DD4616C1CE021F016010160ED
:100560002068416921F080014161206C08B9A06CCC
:1005700020B12068016821F00801016094F85C1046
:100580003F208840A86084F8349084F83580216D3D
:100590001FE0E16B09B120468847606D00282BD031
:1005A000606DC00714D0052084F83500206801680C
:1005B00021F0010101600098401C0090B84203D86E
:1005C00020680068C007F6D184F8349084F835803C
:1005D000E16C002910D001B02046BDE8F043084787
:1005E0000168C905D5D4016821F01001016084F8C3
:1005F000349084F83580CCE7BDE8F88318000020FB
:100600002DE9F041044600F065F906465CB100258D
:1006100084F83450022084F835002068016821F005
:10062000010101600DE00120BDE8F08100F052F908
:10063000801B052805D920206065032084F835003B
:10064000F2E720680068C007F0D1226811682048EE
:100650000140D4E901031843D4E903363343184376
:1006600063691843A3691843E3691843236A18436D
:100670000843616A042903D1D4E90B1319430843E1
:10068000106020684069666A20F0070130460E431A
:10069000012704280CD1A06A0643E06A40B1204635
:1006A000FFF78AFE20B14020606584F83570BAE714
:1006B000206846612046FFF76BFE94F85C203F21DE
:1006C00091408160656584F835700020ACE70000DA
:1006D0003F8010F02DE9F0410446866D90F834001B
:1006E000002501280DD0012084F8340094F83570DD
:1006F0000020012F07D084F8340002252846BDE8E9
:10070000F0810220FBE7022784F8357060652046FF
:10071000FFF77CFE94F85C103F208840B0602068B2
:10072000016841F0160101602068416941F08001D3
:100730004161206C20B12068016841F0080101602E
:100740002068016841F001010160D7E72DE9F84F09
:10075000DFF860B100224FF001084FF0030A4FF0BC
:100760000F090BF1040E00BF0B6808FA02F42340D6
:10077000A3426ED14D68022D01D0122D0ED1D508A5
:1007800000EB850CDCF820505607F70E09FA07F647
:10079000B5430E69BE402E43CCF820600668550074
:1007A0000F790AFA05FC07F0030726EA0C06AF40AA
:1007B000374307604E68012E05D0022E03D0112E5C
:1007C00001D0122E0ED18668CF6826EA0C06AF4003
:1007D000374387604668A6430C79C4F300149440FD
:1007E00034434460C6688C6826EA0C06AC40344347
:1007F000C4604C68E40056D52F4C256845F480450C
:100800002560246822F0030504F4804400942B4CF6
:100810002E19D6F8084895072F0F09FA07F5AC43AB
:10082000274DA84201D1002515E0264DA84201D14F
:10083000012510E0244DA84201D102250BE0234DF3
:10084000A84201D1032506E0214DA84202D104258A
:1008500001E028E00725BD402543C6F80858DBF82D
:1008600000405D464E689C43F60300D51C432C6057
:10087000DEF8004075464E689C43B60300D51C4325
:100880002C600C4D08352C684E689C43F60200D550
:100890001C432C60074D0C352C684E689C43B602F7
:1008A00000D51C432C60521C102AFFF45DAFBDE83C
:1008B000F88F0000003C0140443802400030014005
:1008C000000002400004024000080240000C024008
:1008D0000010024001488068704700000C000020B2
:1008E0007047704770B504460068456946682D49F1
:1008F0000D4208D0F10506D5216C41F001012164BB
:100900006FF48071416115F4813F09D0F00507D57E
:10091000206C40F00200206421686FF40070486190
:1009200015F4823F28D0F00526D594F83E30628D2C
:1009300094F83D00216B202B08D13AB921280ED024
:1009400029280CD0282801D1212908D0206C40F07A
:100950000400206494F83E00102804D008E02046EB
:1009600001F038F908E02068016841F40071016085
:1009700021686FF48060486115F4843F09D0F00568
:1009800007D5206C40F00800206421686FF40060F7
:100990004861206C002804D02046BDE8704000F07B
:1009A00079BE70BD000101002DE9F05F02680446C8
:1009B000D2F818805569566890F83E007449DFF8FF
:1009C000D0A1DFF8CCB1DFF8CC918F1C0AF17E0A00
:1009D0000BF13E0B102812D0402810D00D425BD0F6
:1009E000B00559D5936920460021DB435B0700D54C
:1009F00001219269D243120648D5828947E015F059
:100A0000011F05D0B00503D5204601F0B5F810E070
:100A10005F48801D054205D0B00503D5606CC0B2AB
:100A2000106106E00D4204D0B00502D5204601F069
:100A300029F818EA090F14D015EA0A0F08D0700532
:100A400006D53D4206D12046BDE8F05F00F096BFD6
:100A50003D421FD0B0051DD52046BDE8F05F00F037
:100A60004CBF15EA0B0F08D0700506D53D4206D1E4
:100A70002046BDE8F05F00F0FEBE3D420AD0B00562
:100A800008D52046BDE8F05F00F096BE028B92B21A
:100A9000FFF727FFBDE8F09F3D480E30054206D026
:100AA000B00504D52046BDE8F05F01F0D5B818EADE
:100AB000090F4FF0280134D015EA0A0F23D0700532
:100AC00021D53D4221D194F83D302046628D002A47
:100AD000E0D0426A541C4462046812782261428D5C
:100AE000521E4285428D002AD4D1292BD2D10268D0
:100AF000536823F4806353602122026380F83D1021
:100B000000F0E7F9C6E73D42C4D0B005C2D5608D1C
:100B10000028BFD0606A411C6162216800780861CA
:100B200031E015EA0B0F22D0700520D53D4220D1CF
:100B300094F83D302046648D002CABD01469426A95
:100B4000551C45621470428D521E4285428D002A0A
:100B5000A0D12A2B9ED10268536823F4806353608E
:100B60002222026380F83D1000F0B2F992E73D4284
:100B700090D0B0058ED5608D00288BD01169606A49
:100B8000421C62620170608D401E608582E7000039
:100B90000200010004001000704790F83D0070470B
:100BA00070B5040004D094F83D00002510B106E0B3
:100BB000012070BD84F83C50204600F00FF924203D
:100BC00084F83D002068016821F00101016000F017
:100BD000E1FA33492268B0FBF1F15160314A6368B0
:100BE000934206D94FF4967359434FF47A73B1FB8D
:100BF000F3F12368491C1962616891420BD84900DE
:100C0000B0FBF1F2C2F30B02042A01D2042019E076
:100C1000B0FBF1F016E0A3689BB301EBC10202EB5D
:100C20000112B0FBF2F242F48042120530D04BB315
:100C300001EBC10202EB0111B0FBF1F040F4804086
:100C400040F400402168C861D4E9070108432168E5
:100C50000860D4E90310084321688860D4E90501DD
:100C600008432168C8602068016841F00101016003
:100C70002564202084F83D00256384F83E50002040
:100C800070BD00E006E001EB4102B0FBF2F2CCE700
:100C90000120D7E701EB4101B0FBF1F0D0E7000004
:100CA00040420F00A0860100704770477047000067
:100CB000F8B500250446009590F83D0020287DD128
:100CC000414846F2A8160068B0FBF6F000EBC006FB
:100CD00006EB00100090461E009606D244F8305FE6
:100CE0002020607325730320F8BD20688069C0430D
:100CF000800701D43046EEE794F83C00012860D02C
:100D0000012084F83C0020680668F60703D10668D5
:100D100046F0010606602068066826F40066066054
:100D2000212084F83D00102084F83E002564626292
:100D300063852648E062608D208561640004000CB4
:100D40002AD0616B2248C863616B2248C864606B1B
:100D50000564606B4564606B8564606B0565226843
:100D6000238D1032616A606BFFF7B4FC2068016864
:100D700041F4806101602068016841F48071016084
:100D800084F83C502068416841F44071416020681B
:100D9000416841F400610FE02068016841F480611E
:100DA00001602068016841F48071016084F83C5062
:100DB0002068416841F4E061416000E001E000200A
:100DC000F8BD0220F8BD0000180000200000FFFF61
:100DD0000F160008DB15000870477047F0B506468F
:100DE00000682E4987B0884256D1C020009012205A
:100DF0000190012002900320039004200490694692
:100E00002748FFF7A3FC27480024016841F400119C
:100E100001600068254D00F4001005902248E5E8C7
:100E200002044020070191C5204845F81449AC61EF
:100E3000EC612C626C62FFF7E3FB18B184211CA00B
:100E400001F075F87563AE631748204D18382860B7
:100E50004005C5E90104C5E903476C61AC61EC617B
:100E60002C6228466C62FFF7CBFB18B1962110A0CC
:100E700001F05DF8B563002205211F20AE6300F08C
:100E8000B9F81F2000F0AAF800220521202000F068
:100E9000B1F8202000F0A2F807B0F0BD00540040E7
:100EA000000402404038024028600240D000002088
:100EB0002E2E2F5372632F73746D3332663478780D
:100EC0005F68616C5F6D73702E63000030010020FD
:100ED000704770470248816802781144816070470A
:100EE0000C0000200B4810B5016841F4007101604E
:100EF000016841F480610160016841F48071016022
:100F0000032000F097F80F2000F006F800F024F816
:100F1000002010BD003C024070B50D4D04464FF45A
:100F20007A712878B1FBF0F00A490968B1FBF0F05A
:100F300000F00AFB48B9102C07D200222146501EAF
:100F400000F058F800206C6070BD012070BD0000FA
:100F50000C000020180000201F4808B5016841F46B
:100F600080410160006800F4804000901A48001F32
:100F7000016841F080510160006800F080500090ED
:100F8000032000F057F8002211466FF00B0000F02C
:100F900031F8002211466FF00A0000F02BF8002211
:100FA00011466FF0090000F025F800221146501F8D
:100FB00000F020F800221146101F00F01BF800225C
:100FC0000F21901E00F016F800220F21BDE8084006
:100FD000501E00F00FB800004438024000F01F021D
:100FE000012191404009800000F1E020C0F800118B
:100FF00070470000F0B40E4B1B680C46C3F302238D
:10100000C3F10705042D00D90425191D072901D2B4
:10101000002300E0DB1E012606FA05F1491E2140EF
:1010200099409E40761E16403143F0BC00F09EBEB3
:101030000CED00E0064900F0070208684FF6FF03D8
:10104000184040EA0220034A10430860704700003D
:101050000CED00E00000FA052DE9F0470E46050012
:1010600065D0DFF81481D8F80000F7B200F00F0067
:10107000B04207D288F80070D8F8000000F00F00E6
:10108000B04254D128683D4C810712D5400703D5A2
:10109000206840F4E05020602878000703D52068DD
:1010A00040F4604020602068A96820F0F000084308
:1010B00020602878C0072DD0304968680839012899
:1010C00012D0022813D0032811D0096889070029FB
:1010D0002DDA216821F0030101432160FFF7FAFBBB
:1010E000814641F2883A0EE009688903EFE7096812
:1010F0008901ECE7FFF7EEFBA0EB0901514502D9AE
:101100000320BDE8F0872068696800F00C00B0EBB0
:10111000810FEFD1D8F80010404601F00F01B14225
:1011200007D90770006800F00F00B04201D001201D
:10113000E7E72878400705D52068E96820F4E05003
:10114000084320602878000706D52068296920F424
:10115000604040EAC100206000F02CF82168084A95
:10116000C1F30311515CC840064908600F20FFF726
:10117000D3FE0020C5E70000003C024008380240D2
:10118000242D000818000020014800687047000066
:10119000180000200448054900680968044AC1F3A2
:1011A0008221515CC8407047180000200838024076
:1011B000342D0008154810B5006810F00C021448D2
:1011C00013D04110042A0FD0082A0ED10F4C241F2F
:1011D0002268236802F03F025B0207D52068C0F353
:1011E0008810A0FB010106E0084610BD2168C1F38C
:1011F0008811A1FB00010023FFF748F82168C1F323
:101200000141491C4900B0FBF1F010BD0838024013
:101210000024F4002DE9F84F050076D02878DFF897
:10122000F8B2BE4CC00749D0DBF800105846C1F3F5
:101230008101012908D00068C0F3810002280AD189
:10124000201D0068400206D52068800336D56868F6
:101250000028E2D032E06868B0F5803F10D0B0F5E9
:10126000A02F206810D020F480302060206820F467
:10127000802020606868A0B1FFF72CFB06460CE0D8
:10128000206840F48030F4E740F480202060F7E7E5
:10129000FFF720FB801B642873D820688003F7D5F4
:1012A0000CE0FFF717FB064605E000BFFFF712FB57
:1012B000801B6428F0D820688003F7D42878DFF8F2
:1012C000608280074FF000093ED5DBF800105846D9
:1012D00011F00C0F09D00068C0F3810002280BD177
:1012E0008D48001F0068400206D42068800715D58D
:1012F000E868012809D111E0E868B8B10120C8F810
:101300000000FFF7E7FA064605E002E1FFF7E2FA20
:10131000801B0228C0D820688007F7D5206829697B
:1013200020F0F80040EAC10020600DE0C8F800900D
:10133000FFF7D0FA064604E0FFF7CCFA801B02283C
:101340001FD820688007F7D42878000722D5724E6E
:10135000744869696C3671B101210160FFF7BAFA0E
:10136000074604E0FFF7B6FAC01B022809D8306828
:101370008007F7D50EE0C0F80090FFF7ABFA0746FC
:1013800005E083E0FFF7A6FAC01B02287ED830688C
:101390008007F7D42878400768D5DFF87CA10027BC
:1013A0000AF1380ADAF80000C0000BD4DAF80010AD
:1013B00041F08051CAF80010DAF80000012700F06F
:1013C00080500090584E3068C00510D4306840F40A
:1013D00080703060FFF77EFA009005E0FFF77AFA40
:1013E0000099401A022851D83068C005F6D54A4EF7
:1013F000A868683601280FD00528306810D020F082
:1014000001003060306820F004003060A868B8B196
:10141000FFF760FA00900FE0306840F00100F4E759
:1014200040F004003060F7E7FFF754FA0099411AE2
:1014300041F28830814264D830688007F4D50EE0EC
:10144000FFF748FA009007E0FFF744FA0099411AC5
:1014500041F28830814254D830688007F4D42FB1EB
:10146000DAF8001021F08051CAF80010A869C0B362
:10147000DBF80010C1F3810102294AD00228484656
:1014800007D0C8F86000FFF725FA00E039E005460C
:101490003AE04746C8F86000FFF71CFA064604E049
:1014A000FFF718FA801B02282BD820688001F7D498
:1014B000D5E907010843A96A1C4A490802EB014122
:1014C0006A6A41EA8211084395F82C1040EA0161EA
:1014D0001148001F016001203866FFF7FBF905463F
:1014E00005E014E0FFF7F6F9401B022809D8206850
:1014F0008001F7D50BE000BFFFF7ECF9401B022895
:1015000002D90320BDE8F88F20688001F4D40020C0
:10151000F8E70120F6E700000838024000380240F2
:1015200000004742800E4742007000400000FFFF6D
:101530004FF0E0210428086903D020F0040008617E
:10154000704740F00400FAE710B5401EB0F1807F0C
:1015500001D3012010BD4FF0E02460610F2160171E
:1015600000F004FC0020A06107202061002010BDD5
:10157000FEE700000148FFF7B5B900007C0000203D
:101580000148FFF711BA00007C00002010B5806B05
:1015900001680A6822F480620A6000214185426B7A
:1015A0001165826B116590F83D302022602B80F828
:1015B0003D2080F83E1007D001680A6822F0010241
:1015C0000A60FFF7E9FA10BD016401680A6822F0B9
:1015D00001020A60FFF784F910BD10B5846BFEF7B5
:1015E0003CFF022812D02068016821F4806101606C
:1015F00000206085202184F83D1084F83E00206C96
:1016000040F0100020642046FFF7C6FA10BD10B568
:101610000146806B90F83D3090F83E40896B002287
:10162000212B09681CD0222B01D1202C18D00B684B
:1016300023F480630B6001680B6843F400730B6054
:1016400001684B6823F480534B6001684B6823F4B6
:1016500000634B604285016C69B1FFF79DFA10BDD4
:101660004B6823F400634B6042850068416841F495
:101670004071416010BD202180F83D1090F83E106F
:1016800080F83E20402902D0FFF70FFB10BDFFF786
:10169000A3FB10BD70B590F83D1004460025202630
:1016A000006829292DD02A292BD094F83D106029D3
:1016B00004D04168090501D484F83D60256384F8AD
:1016C0003E50016821F4006101602068416809050D
:1016D00037D5416821F400614160606B90F8352096
:1016E0003349012A12D00165606BFEF7A4FE38B3BE
:1016F0002068016821F00101016084F83D60606BA1
:101700001CE02563282184F83D10DAE7A06B016511
:10171000A06BFEF790FE98B120684169C943490665
:1017200004D40169606A421C626201702068016829
:1017300021F00101016084F83D60A06B016D8847D4
:101740000FE094F83D1060291DD04169C943490656
:1017500004D40169606A421C626201702046FFF78E
:101760001BFA94F83D0028280CD1206C400709D5BD
:101770001048E062256384F83D6084F83E502046BE
:10178000FFF792FA70BD84F83D6025644169C94352
:10179000490604D40169606A421C626201702068D3
:1017A000016821F0010101602046FFF799F8D8E7B0
:1017B0008D1500080000FFFF10B5C26A438D016857
:1017C000042B06D0438D032B08D0438D022B19D058
:1017D0000EE04A6822F480624A6008E04A6822F417
:1017E00080624A6001680A6822F480620A600168C7
:1017F0000A69416A4B1C43620A70418D491E41854A
:10180000002010BD022A2AD0012A28D00A6842F4FA
:1018100000720A6001680A69416A4B1C43620A70DF
:10182000418D491E418501680A69416A4B1C43622A
:101830000A70418D491E418501684A6822F4407250
:101840004A60202180F83D100021016390F83E207D
:1018500080F83E10402A0BD0FFF727FAD0E70A683D
:1018600022F480620A6001680A6842F48072D0E75C
:10187000FFF7B2FAC4E710B590F83D10222937D12E
:10188000418D032911D901680A69416A4B1C4362E1
:101890000A70418D491E4185418D032928D1006878
:1018A000416821F48061416022E0012900D0F9B94A
:1018B00001680A6822F480620A6001684A6822F4BA
:1018C000E0624A6001680A69416A4B1C43620A701F
:1018D000418D491E4185202180F83D100021016382
:1018E00090F83E2080F83E10402A03D0FFF7DDF943
:1018F000002010BDFFF770FAFAE710B5C26A90F841
:101900003D10212921D1418D49B1416A4A1C4262D1
:10191000026809781161418D491E418515E0202337
:101920000021042A13D0082A11D012F5803F0ED0CE
:101930000268546824F4E06454601122026380F861
:101940003E1080F83D30FFF7B1F9002010BD02686D
:10195000546824F4E06454600268146844F4007429
:101960001460016380F83D3090F83E2080F83E100E
:10197000402AE8D1FFF731FAE7E7000010B590F808
:101980003D1090F83E30C26A048D24B1212934D034
:10199000402B30D074E02129FAD120230021042AE1
:1019A00013D0082A11D012F5803F0ED00268546877
:1019B00024F4E06454601122026380F83E1080F841
:1019C0003D3000BFFFF772F95AE00268546824F412
:1019D000E06454600268146844F4007414600163A5
:1019E00080F83D3090F83E2080F83E10402AE9D142
:1019F000FFF7F3F944E0222942D1418D21B190F85B
:101A00003E10402906D032E00068416821F4806130
:101A1000416035E0016D31B1016D012911D0016DD9
:101A2000022915D02CE0C16C0129816C02D0C1F3D0
:101A3000072108E00268C9B21161016D891C0165C6
:101A40001EE0816CC9B202681161016D491CF6E7A4
:101A500090F83D10222904D090F83D10212906D09D
:101A60000EE00068016841F48071016008E0416A9D
:101A70004A1C4262026809781161418D491E418504
:101A8000002010BD78B590F83E50C26A036B90F804
:101A90003D6000240168222E06D1066D0EB9402D4E
:101AA00002D0056D25B107E048698869009058E0CB
:101AB0000569B5F5404F08D0458D55B3458D012DCD
:101AC0000ED0428D022A37D04DE04A698A690092D1
:101AD0000A6842F480720A60016D491C016540E0A9
:101AE00012F5803F09D0042A20D0082A1ED0122BDC
:101AF0001CD0C26A022A08D113E00A6822F480626C
:101B00000A6001684A68120503D50A6822F48062F7
:101B10000AE04A698A6900920A6842F400720A601F
:101B20001EE00A6842F480620A6015E00A6822F446
:101B300080620A600168ECE7C26A022A13D00A6870
:101B400022F480620A6001680A6842F400620A6056
:101B500001684A6812050AD401684A6989690091D6
:101B60000465002078BD0A6842F48062EFE74A68A5
:101B700042F480524A60EFE790F83E10402909D0C5
:101B80000169B1F5804F10D0016D99B1016D012946
:101B900015D01CE0016D19B9416C01F0FE0114E093
:101BA000416CC9B241F001010FE090F83D102129CC
:101BB000F6D1F1E7416CF02201F4407103E0416C91
:101BC000F12201F4407142EAD11100680161002064
:101BD000704700002DE9F04190F83D40C26A0023B3
:101BE0001C4F202601686FF48065042A01D0082A62
:101BF00001D1282C05D0212C17D04D610020BDE843
:101C0000F081C7624A6822F4E0624A6001684D616F
:101C100001680A6822F480620A60036380F83D600C
:101C200080F83E30FFF740F8E8E7C7622122026300
:101C300080F83D6080F83E304A6822F4E0624A60F5
:101C400001684D6101680A6822F480620A60FFF74A
:101C500040F9D3E70000FFFF38B590F83D20016858
:101C60004B6823F4E0634B60036800215C690094D7
:101C70001C6844F001041C6003681C6824F4806440
:101C80001C6003685C6824050BD590F83D40222C4D
:101C90002BD090F83D402A2C27D0446B24686468F0
:101CA0004485448DE4B15C69E443640707D41C694E
:101CB000436A5D1C45621C70438D5B1E438503684F
:101CC0005C69E443640607D41C69436A5D1C456291
:101CD0001C70438D5B1E4385036C43F00403036457
:101CE000036C23B1FFF7D6FC1FE0846BD6E72023FB
:101CF000282A09D02A2A07D0292A05D0046B222CA9
:101D00000CD0222A0AD010E0094AC262016380F88E
:101D10003D3080F83E10FEF7C7FF06E0016380F813
:101D20003D3080F83E10FFF7D3F8002038BD0000AA
:101D30000000FFFF0B4810B50949016064214160B4
:101D400000214FF480428160C0E90312416181614A
:101D5000C1610162FEF724FF002800D0FEE710BD3C
:101D6000005400407C000020FEE770470907090E80
:101D7000002806DA00F00F0000F1E02080F8141DC2
:101D8000704700F1E02080F800147047142304220B
:101D90002721164800F03AF9042115A000F0A6F911
:101DA0000021062000F0B4F9052113A000F09EF9EF
:101DB0000121002000F0ACF90D2111A000F096F9EE
:101DC0000221002000F0A4F9122111A000F08EF9E8
:101DD0000321002000F09CF9052112A000F086F9F3
:101DE0004FF47A74204600F02BFDFBE77C000020C6
:101DF000486F4C61000000005875536F21000000CF
:101E0000507554612050616E54614C4C610000006B
:101E100054656E696120656C20636F6E74726173C6
:101E20007465000062616A6F2121000010B5FFF740
:101E300051F8BDE8104000F00CBA000030B524485D
:101E400093B00024016841F080510160006800F007
:101E5000805011901F48016841F4404101600068C2
:101E6000022500F4404011900120039010200490BE
:101E7000009506950820CDE907406420CDE90905C5
:101E800004200B906846FFF7C5F900B1FEE70F206C
:101E9000CDE90C054FF48050CDE90E4003210CA88C
:101EA0001094FFF7D9F800B1FEE7FFF76DF94FF492
:101EB0007A71B0FBF1F0FFF747FB0420FFF738FB26
:101EC00000220F21501EFFF795F813B030BD00001F
:101ED00040380240007000401048016841F4700131
:101EE00001600F48016841F0010101600C4A0021C6
:101EF0000832116002680B4B1A400260031D0A4A47
:101F00001A60026822F48022026005480C300160E9
:101F100002495806803908607047000088ED00E0EB
:101F200000380240FFFFF6FE10300024FEE7FEE717
:101F300002E008C8121F08C1002AFAD17047704792
:101F4000002001E001C1121F002AFBD170470000F0
:101F500038B500228DF800202B4A147A537A49B301
:101F600001294FD109284DD2DFE800F04C050E08B9
:101F70000B103D1E210044F004002CE044F0020050
:101F800029E044F0010026E0012000E002208DF865
:101F900000006946002000F0D3F8002803D002209A
:101FA00000F04EFC012038BD43F002001FE043F07A
:101FB00001001CE0092825D2DFE800F024052408F0
:101FC0000B241512170024F0040004E024F0020092
:101FD00001E024F001001072C0B240F008000AE0F5
:101FE00023F0020003E0537202E023F0010050727C
:101FF000507A40F004008DF800006946002000F09F
:102000009FF838BD002038BD900100207CB5002429
:102010008DF80040334C344D20604800A07122718F
:1020200063710820E0713420287068703020A87037
:102030000026A17903232C4A2068FEF739FE08BB4D
:1020400000F094FD019002E0012000F0F9FB20680F
:10205000FEF7A3FD2028F7D1022E15D0052101A8F7
:1020600000F014FC761CF6B2032EE2D32C2028706C
:1020700068702820A870A17903231B4A2068FEF706
:1020800017FE30B100207CBD0121E8E7012000F0FF
:10209000D7FB2068FEF781FD2028F7D19DF80000CE
:1020A00040F002008DF800002179012903D940F0A9
:1020B00008008DF800006946002000F041F8012179
:1020C0000846FFF745FF01210720FFF741FF0121E7
:1020D0000220FFF73DFF01210520FFF739FF012016
:1020E0007CBD0000900100200400002070B50D466A
:1020F0000646002407E03119012000F021F80028ED
:1021000004D0641CE4B2AC42F5D3012070BD0000E1
:10211000094A08B512798A4201D8521ED1B2074A3B
:10212000515C084440F080008DF8000069460020B2
:1021300000F006F808BD000090010020182D0008EE
:1021400070B51A4C0B78E27903F0F003154642EAB9
:10215000000643F0040346EA0302154B1A705A7056
:102160000A7802F0F00202432A439A700A781201B8
:1021700042F004021643DE701E7109780C4A40EAF0
:1021800001110D435D71A17906232068FEF790FDD2
:1021900020B1002070BD00BF00F052FB2068FEF7A8
:1021A000FCFC20284FF00100F6D170BD900100200A
:1021B0000400002086B0FEF795FEFFF73FFE1C48A6
:1021C000016841F080010160016801F08001059122
:1021D000016841F002010160016801F0020105910E
:1021E000016841F4001101600068002200F4001051
:1021F000059005210B20FEF7FDFE0B20FEF7EEFEFD
:10220000002205210C20FEF7F5FE0C20FEF7E6FE6D
:10221000FFF790FD142207496846FEF768F8002191
:10222000684600F020F80449086000F00DF8FEE769
:1022300030380240042D0008000000200146002034
:10224000842900D0C81C704710B500F065FB002041
:1022500010BD10B500F07CFC012803D0BDE8104093
:1022600000F034BC10BD3EB504460D46B0F9080080
:10227000FFF7E4FF02A9CDE90001208A2B4682B2D4
:10228000D4E9001000F038FC012801D000203EBD48
:1022900002983EBD2DE9F041184C0F460546E66810
:1022A0002068001D00F016FA38B9206890F82C104C
:1022B00001208840216981432161681C07D137B121
:1022C0002168BDE8F0410E48091D00F03BBA2068C6
:1022D0003544B5424560216805D2A06BBDE8F041A8
:1022E000091D00F017BA606B091D00F013FAA06A0F
:1022F000854200D2A562BDE8F081000040000020C8
:10230000783E00202DE9F041054600F027FA2E4CDA
:10231000A068401CA06020682C4F10B1606940B3D9
:102320002DE02560A068012829D1002606EB860053
:1023300007EB800000F0E0F9761C072EF6D3234867
:102340008C3000F0D9F92148A03000F0D5F91F48B1
:10235000B43000F0D1F91D48C83000F0CDF91B4869
:10236000DC3000F0C9F919488C3060631430A06388
:1023700005E02068E96AC06A884200D82560606A82
:10238000401C6062E96A0120226988401043206194
:1023900001EB810007EB8000291D00F0D3F900F06C
:1023A000FDF9606900280CD02068E96AC06A88429B
:1023B00007D207494FF080500860BFF34F8FBFF33B
:1023C0006F8FBDE8F0810000400000209C3D0020A0
:1023D00004ED00E070B5114E114C17E000F0D0FA9A
:1023E0003068B8B100F02CFC00F0B8F9F068C568AE
:1023F000281D00F06FF9A068401EA0606068401EB4
:10240000606000F0CBF9284600F00CF86068002806
:10241000E4D170BD00F014FCF8E70000643E002039
:102420004000002010B50446006B00F0CBF92046B8
:10243000BDE8104000F0C6B910484FF47051420793
:1024400006D0C01D0D4920F00700411AC1F570519A
:102450000B4A00230144C2E900030839103A21F075
:10246000070111604B600B600B1AC0E90013936009
:102470004FF000405360D060704700009C01002086
:102480002C000020074C4FF08056074DFFF7A2FFAD
:1024900020680128FAD92E60BFF34F8FBFF36F8FEA
:1024A000F4E700009C3D002004ED00E02DE9F0473A
:1024B0009A46DDE9098481466FF00303206B03EB44
:1024C00082021044089D20F00706700707D05020B4
:1024D00080F31188BFF34F8FBFF36F8FFEE7231890
:1024E0000A5C83F834200A5C12B1401C1028F6D331
:1024F000002784F84370072D00D30625E562C4E960
:102500001157201D00F003F904F1180000F0FFF846
:102510002461C5F107006462A061E76484F850702B
:1025200052464946304600F0BFF82060B8F1000F2F
:1025300001D0C8F80040BDE8F087000030B511496F
:1025400000E011460A688242FBD34B685C18844263
:1025500003D1406818444860084643681C189442F8
:1025600009D1084C103C2468A24209D052681A4490
:1025700042600A6812680260814200D0086030BD83
:102580000460F9E72C0000200648416B096829B176
:10259000416BC968C9684968816270474FF0FF3173
:1025A000FAE700004000002008484068401C4FF057
:1025B000500080F3118804D0BFF34F8FBFF36F8FAB
:1025C000FEE7BFF34F8FBFF36F8FFEE734000020AD
:1025D0002DE9F0410546002700F0D2F9314E306870
:1025E00008B9FFF729FFF06805424BD1C5B308359C
:1025F00068070ED005F00700C0F108000544680721
:1026000007D0502080F31188BFF34F8FBFF36F8F37
:10261000FEE72DB37068854234D822481030014659
:102620000C6801E020460C466168A94202D221688C
:102630000029F7D131688C4224D0076821680160F5
:1026400060680837411B10290FD96019420708D06C
:10265000502080F31188BFF34F8FBFF36F8FFEE7D9
:1026600010E041606560FFF769FF61687068401ABB
:102670007060B268904200D2B060F0680143002000
:10268000C4E9000100F0DCFA780707D0502080F39D
:102690001188BFF34F8FBFF36F8FFEE73846BDE859
:1026A000F08100001C00002010B5031F4FF0807463
:1026B0001C601B1F21F001011960191F044B0B60E6
:1026C00014390A60091F6FF0020244380A6010BD15
:1026D000A9250008D0E9013201699A60D0E90123F7
:1026E0005A604A68824201D182684A6000220261CF
:1026F0000868401E0860704700F108014FF0FF3283
:10270000C0E90112C1600161002101607047002130
:102710000161704730B50B685A1C02D000F1080205
:1027200002E0026904E02246546825689D42FAD915
:1027300053684B6099608A60516008610168491C68
:10274000016030BD42684A6093688B60936859604D
:10275000916008610168491C01607047502080F356
:102760001188BFF34F8FBFF36F8F0A494868401C31
:10277000486001280CD10848006810F0FF0F07D00E
:10278000502080F31188BFF34F8FBFF36F8FFEE7A8
:10279000704700003400002004ED00E0084948685C
:1027A00028B1401E486001D180F311887047502045
:1027B00080F31188BFF34F8FBFF36F8FFEE70000E8
:1027C0003400002070B5002827D0144DA0F1080473
:1027D0006168E868014207D1502080F31188BFF397
:1027E0004F8FBFF36F8FFEE722683AB1502080F31E
:1027F0001188BFF34F8FBFF36F8FFEE78143616096
:1028000000F0BEF860686968084468602046FFF719
:1028100095FEBDE8704000F013BA70BD1C000020AA
:1028200006484FF47A710068B0FBF1F14FF0E020F8
:10283000491E416107210161704700001800002016
:1028400010B5020014D00F48006B38B1502080F34F
:102850001188BFF34F8FBFF36F8FFEE700F090F842
:1028600000211046FFF716FD00F0EAF9002807D115
:1028700005494FF080500860BFF34F8FBFF36F8F53
:1028800010BD00004000002004ED00E070B50D46D2
:1028900004000BD095B11E4A106BB8B1502080F3E4
:1028A0001188BFF34F8FBFF36F8FFEE7502080F387
:1028B0001188BFF34F8FBFF36F8FFEE7502080F377
:1028C0001188BFF34F8FBFF36F8FFEE700F058F80A
:1028D000D26823685919934204D98B420AD991428C
:1028E00002D807E08B42FAD9881A21600021FFF74D
:1028F000D1FC00E0216000F0A3F9002807D10549D0
:102900004FF080500860BFF34F8FBFF36F8F70BDE3
:102910004000002004ED00E01CB515480024CDE97E
:1029200000402346802213A1144800F0E5F8012856
:1029300009D0401C1AD1502080F31188BFF34F8F6B
:10294000BFF36F8FFEE7502080F31188BFF34F8FE6
:10295000BFF36F8F06484FF0FF312C3881620121A1
:102960004161C460BDE81C4000F040B81CBD0000DF
:102970006C00002049444C450000000085240008FC
:102980000248016B491C01637047000040000020B1
:102990001448016B11B10121C16170470021C1616F
:1029A0000169B1FA81F1C1F11F0101EB81020E4908
:1029B00051F822306BB101EB820101F108034A6842
:1029C00052684A609A4201D152684A60D1680160F7
:1029D0007047502080F31188BFF34F8FBFF36F8F84
:1029E000FEE70000400000209C3D00201CB532485E
:1029F0000168324A914207D1502080F31188BFF319
:102A00004F8FBFF36F8FFEE700682C49491E884245
:102A100007D1502080F31188BFF34F8FBFF36F8F22
:102A2000FEE7274908780190FF20087008788DF8A4
:102A300000009DF800009DF8002000F0F00090429A
:102A400007D0502080F31188BFF34F8FBFF36F8FF3
:102A5000FEE79DF800001B4A00F0500010700720B0
:102A6000906005E09DF800305B008DF80030401E5E
:102A70009DF800301B06F5D4000200F4E060906081
:102A8000019808700C482030016841F47001016021
:102A9000016841F070410160FFF7C2FE0020506004
:102AA000FDF7A4FB0848016841F040410160FDF7D3
:102AB0008DFB00201CBD000000ED00E071C20F4145
:102AC00000E400E03400002034EF00E010B55020B6
:102AD00080F31188BFF34F8FBFF36F8F00F04CF876
:102AE00018B104494FF080500860002080F311882D
:102AF00010BD000004ED00E02DE9FF5F8346DDE935
:102B00000E87994616468A469000FFF761FD05003C
:102B10001AD05420FFF75CFD040012D02563002179
:102B2000CDE90241CDE900874B4632465146584631
:102B3000FFF7BCFC2046FFF7E5FB012004B0BDE831
:102B4000F09F2846FFF73EFE4FF0FF30F6E700000B
:102B50000548416919B1006B18B100207047012088
:102B60007047022070470000400000200148C06804
:102B700070470000400000202DE9F0412E4C002756
:102B8000206B40B1A069401CA061E06900B1012741
:102B90003846BDE8F081E668761CE66013D1606BCC
:102BA000006838B1502080F31188BFF34F8FBFF316
:102BB0006F8FFEE7606BA16B6163A063206A401CAE
:102BC0002062FFF7E1FCA06ADFF87080864209D33B
:102BD000606B006880B1606BC068C56868688642D9
:102BE0000DD2A0622068C06A00EB800158F8210075
:102BF0000128CAD90127C8E74FF0FF30F1E7281DA7
:102C0000FFF768FDA86A18B105F11800FFF762FD2B
:102C1000E86A0121226981401143216100EB8001B2
:102C200008EB8100291DFFF78DFDE86A2168C96A5C
:102C30008842CDD30127CBE7400000209C3D0020F7
:102C40002DE9F0472C4D00242746286B38B1FFF7BB
:102C500085FD286B401E2863286B40B146E050205C
:102C600080F31188BFF34F8FBFF36F8FFEE7A96822
:102C7000224E0120D1B3A6F1B40980463068E8B1F4
:102C8000F068C46804F11800FFF724FD201DFFF769
:102C900021FDE06A2A6908FA00F11143296100EB7D
:102CA000800109EB8100211DFFF74CFDE06A2968D6
:102CB000C96A8842E2D3C5F81C80DFE70CB1FFF790
:102CC00063FCAC6944B14646FFF756FF00B1EE61C4
:102CD000641EF9D10020A861E86938B108490127CC
:102CE00038070860BFF34F8FBFF36F8FFFF756FDB4
:102CF0003846BDE8F087000040000020503E00202C
:102D000004ED00E03C2D00088D1D000800000000CF
:102D1000000000008000000000401454000610165F
:102D2000000610160000000000000000010203046D
:102D300006070809000000000102030464656661DB
:102D4000756C745461736B00682D000800000020DE
:102D50007C000000301F0008E42D00087C000020EB
:102D600014420000401F00080000000000000000A6
:102D70000000000001000000100000000000000042
:102D80000024F4000000000000000000000000002B
:102D90000000000000000000000000000000000033
:102DA000AAAAAAAA0000000000000000000000007B
:102DB0000000000000000000000000000000000013
:102DC0000000000000000000000000000000000003
:102DD00000000000000000000000000000000000F3
:042DE00000000000EF
:040000050800019955
:00000001FF
