:020000040800F2
:10000000E00600209D010008E3290008191F0008F0
:10001000E1290008B10500087D3300080000000058
:10002000000000000000000000000000332B00086A
:10003000B305000800000000052A0008352B000861
:10004000B7010008B7010008B7010008B7010008B0
:10005000B7010008B7010008B7010008B7010008A0
:10006000B7010008B7010008B7010008B701000890
:10007000B7010008B7010008B7010008B701000880
:10008000B7010008B7010008B7010008B701000870
:10009000B7010008B7010008B7010008B701000860
:1000A000B7010008B7010008B7010008AD2C00082F
:1000B000B92C0008B7010008B7010008B701000813
:1000C000B7010008B7010008B7010008B701000830
:1000D000B7010008B7010008B7010008B701000820
:1000E00089080008B7010008B7010008B701000837
:1000F000B7010008B7010008B7010008B701000800
:10010000B7010008B7010008B7010008B7010008EF
:10011000B7010008B7010008B7010008B7010008DF
:10012000B7010008B7010008B7010008B7010008CF
:10013000B7010008B7010008B7010008B7010008BF
:10014000B7010008B7010008B7010008B7010008AF
:10015000B7010008B7010008B7010008B70100089F
:10016000B7010008B7010008B7010008B70100088F
:10017000B7010008B7010008B7010008000000003F
:10018000B7010008B7010008DFF80CD000F06CF9E7
:100190000048004761340008E00600200648804718
:1001A00006480047FEE7FEE7FEE7FEE7FEE7FEE75C
:1001B000FEE7FEE7FEE7FEE7592C0008890100088C
:1001C0002DE9F05F0546002092469B46884606468C
:1001D000814640241BE0284641464746224600F01F
:1001E000D6F853465A46C01A914110D311461846C4
:1001F000224600F0BDF82D1A67EB01084F46224653
:100200000120002100F0B4F817EB00094E41201E38
:10021000A4F10104DFDC484631462A464346BDE8E6
:10022000F09F40EA01039B0703D009E008C9121FB1
:1002300008C0042AFAD203E011F8013B00F8013BA0
:10024000521EF9D270472DE9F04D81EA030404F003
:10025000004B21F0004514464FF0000A23F0004106
:1002600050EA050220D054EA01021DD0C5F30A5716
:100270000246C5F31303C1F31300C1F30A5640F459
:10028000801543F48013A7EB0608101BD64608F22E
:10029000FD3873EB050002D308F1010801E0921864
:1002A0005B41B8F1000F03DA00200146BDE8F08D94
:1002B00000204FF48011064684460EE0171B73EBB6
:1002C000050705D3121B63EB050306434CEA010C3B
:1002D00049084FEA300092185B4150EA0107EDD11E
:1002E00052EA030012D082EA040083EA05010843BF
:1002F00005D0101BAB4106D20122002306E00022EC
:100300004FF0004302E06FF0010253101AEB0600B9
:100310004CEB085110EB0A0041EB0B01BDE8F04D2E
:1003200000F045B80EB540F2334102910021CDE90D
:1003300000110A460B4600F049F803B000BDC1F3B6
:100340000A5210B5C1F3130140F2FF3341F480119A
:100350009A4201DA002010BD40F233439A42A2F2E1
:10036000334203DC524200F012F810BD904010BD41
:10037000202A04DB203A00FA02F100207047914065
:10038000C2F1200320FA03F3194390407047202A5A
:1003900004DB203A21FA02F00021704721FA02F32F
:1003A000D040C2F12002914008431946704710B571
:1003B000141E73F1000408DA401C41F10001921888
:1003C0005B411A4301D120F0010010BD2DE9F04D31
:1003D00092469B4611B1B1FA81F202E0B0FA80F286
:1003E00020329046FFF7C4FF04460F4640EA0A0059
:1003F00041EA0B0153465A46084313D0114653EACB
:10040000010019D0C8F140025046FFF7C0FF054671
:100410000E46504659464246FFF7AAFF084305D00C
:10042000012004E020463946BDE8F08D0020054358
:1004300046EAE0762C4337430A986305E40AA0EBCA
:1004400008000022FD0A44EA47540A3002D5002081
:100450000146E9E7010510196941DDE90845001980
:100460006941BDE8F04DA2E7064C074D06E0E068A3
:1004700040F0010394E8070098471034AC42F6D3EB
:10048000FFF786FE483A0008683A0008454910B56B
:100490004A6822F440324A604A6843681A434A6014
:1004A00001684A6822F480724A6001684A680369F8
:1004B00042EA03224A6001684A6822F040724A60B8
:1004C00001684A6883681A434A6001688A6822F4AE
:1004D00000628A6001688A68C3681A438A60816A18
:1004E0006FF07062D14201688A6822F070628A609F
:1004F00001688A680CD0836A1A438A6001688A6836
:1005000022F040528A6001688A68C36A1A4301E097
:1005100022F040528A6001688A6822F002028A60F2
:1005200001688A68836942EA43028A60016A002995
:1005300001684A680FD042F400624A6001684A6864
:1005400022F460424A6001684A68174C436A04EB2F
:1005500043331A4301E022F400624A600168CA6A28
:1005600022F47002CA620168CA6A838B0F4C04EBE2
:1005700003531A43CA6201688A6822F400728A60CF
:1005800001688A68036B42EA43228A6001688A68CC
:1005900022F480628A6001688A68406942EA8020A9
:1005A000886010BD0023014000E0FFFF0000F0FF65
:1005B000FEE77047FEB54FF400725D4980208DE87C
:1005C00007005C4B40225C495C4801F0F9FC0220CA
:1005D00001F020FF002001F0AFFC28234FF6205649
:1005E000DC00002122460846009601F0CBFC47F6CD
:1005F000EF35F0232246D2210020009501F0C2FC05
:1006000000211F232246084601F068FE1F232246D0
:10061000F021002001F062FE1F232246D22100209B
:1006200001F05CFE1F2322462821002001F056FE27
:1006300000211F23F022084601F059FE1F23F0225B
:100640000021204601F053FE0124CDE900644AF662
:10065000E573122246213AA001F0BCFECDE9005418
:100660004FF6E0763346DE220A213DA001F0B2FECD
:10067000CDE900543346D722D22142A001F0AAFE90
:10068000CDE900543346E422D72143A001F0A2FE75
:100690001F230F2214211E2001F082FE4FF49175BA
:1006A0001F230F221421284601F07AFE3346072229
:1006B00014211E2001F074FE33460722142128461F
:1006C00001F06EFE0025CDE900544FF6FF7633466B
:1006D0003C22142134A001F07DFECDE900543346C4
:1006E0005A22142134A001F075FECDE9005433469E
:1006F0007822142136A001F06DFECDE90054334676
:100700009622142136A001F065FECDE9005433464F
:100710003222BE2138A001F05DFECDE900543346FF
:1007200032224FF4817135A001F054FEFEBD00006D
:100730000000024000080240000402405401002072
:1007400053697374656D6120446F6D6F7469636F75
:1007500020646520496C756D696E6163696F6E0018
:1007600053697374656D617320456C656374726F52
:100770006E69636F73204469676974616C65732087
:10078000000000004368726973746F7068657220BE
:10079000456E676120000000456E726971756520C5
:1007A0004D6174656F7300004C757A2054656D70EF
:1007B0006F72697A61646100496E746572727570F6
:1007C000746F72204465626F756E6365000000008F
:1007D0004C757A2050726F78696D6964616420008D
:1007E00044696D6D657220506F74656E63696F6DDD
:1007F0006574726F000000004F4E00004F464600C7
:1008000038B50021C0F58C740091A5234FF48C728B
:100810009621204601F0B6FB4FF4FC600090224682
:10082000A5239621B42001F0ADFB38BD38B50446B0
:100830004FF4784004F10A0300901D464FF48C7287
:100840002146FA2001F09EFB002000902B46D22288
:100850002146B42001F096FB38BD38B5044600208F
:1008600004F10A0300901D464FF48C722146FA20D1
:1008700001F088FB4FF4FC6000902B46D222214609
:10088000B42001F07FFB38BD4FF4006000F0E6B902
:1008900078B50024009490F83C20012A19D0012258
:1008A00080F83C200A6807230568092A13D9EE68F6
:1008B0000A3A02EB420293409E43EE600B788A684C
:1008C0000A3B03EB43039A400368DD682A43DA607E
:1008D00010E0022078BD2E6902EB420293409E4355
:1008E0002E610B788A6803EB43039A4003681D6905
:1008F0002A431A614A681F23072A13D205686E6BC0
:10090000521E02EB820293409E436E630B790A886B
:100910005B1E92B203EB83039A4003685D6B2A432C
:100920005A6327E005680D2A12D22E6BD21F02EB04
:10093000820293409E432E630B790A88DB1F92B29A
:1009400003EB83039A4003681D6B2A431A6311E08B
:10095000EE6A0D3A02EB820293409E43EE620B79FF
:100960000A880D3B92B203EB83039A400368DD6A69
:100970002A43DA62164B0568144A9D4206D10D6877
:10098000122D03D1556845F48005556005689D42D8
:1009900018D10B68102B01D0112B13D1536843F4DD
:1009A00000035360096810290CD10A490A4A0968F2
:1009B000B1FBF2F101EB8101490000E0491E009119
:1009C0000029FBD180F83C40002078BD0023014085
:1009D000002001406800002040420F000068C06C09
:1009E000704770B504004FF0000503D0206C00265E
:1009F00010B107E0012070BD666484F83C602046B9
:100A000000F01AF8206CC00610D4206C20F4885036
:100A100040F0020020642046FFF738FD6664206C39
:100A200020F0020040F00100206400E0012584F87D
:100A30003C60284670BD000030B5134D04680022AC
:100A400012490323124887B0AC4209D10C6844F420
:100A500080740C60096801F48071059101210BE03C
:100A60000C4DAC420ED10C6844F400740C60096863
:100A700001F4007105910221CDE90013029269464B
:100A800000F0F8F807B030BD0020014044380240C3
:100A900000000240002101402DE9F04104460068B9
:100AA0000D4681684FF0000749050BD58068C005E9
:100AB00008D5206C40F02000206484F83C700120B0
:100AC000BDE8F08100F0B8F906460FE0681C0DD0D3
:100AD00025B100F0B1F9801BA84207D9206C40F085
:100AE0000400206484F83C700320E9E72068006873
:100AF0008007EBD521686FF012000860206C40F48D
:100B0000007020642068816811F0405F13D1A169F2
:100B100089B9C16A11F4700F02D0806840050AD407
:100B2000206C20F480702064206CC00403D4206CFE
:100B300040F0010020640020C2E7000018B5002149
:100B4000009190F83C20012A07D0012280F83C2037
:100B500002689368DB0702D011E0022018BD936899
:100B600043F001039360204A204B1268B2FBF3F27A
:100B700002EB420200E0521E0092002AFBD1026802
:100B80009368DB072DD0036C40F20164A34343F468
:100B90008073036453685B0505D5036C23F400532D
:100BA00043F480530364036CDB0404D5436C23F0EB
:100BB0000603436400E0416480F83C100C496FF088
:100BC0002203136049680068C90602D009498842B7
:100BD00007D1816811F0405F03D1816841F0804105
:100BE0008160002018BD00006800002040420F0016
:100BF000002301400020014090F83C1001290CD056
:100C0000012180F83C1001688A6822F001028A60A4
:100C100001688968C90702D007E002207047016CAB
:100C200021F4885141F001010164002180F83C1059
:100C30000846704770B5044600F0FEF80546601C93
:100C400002D004480078044400F0F6F8401BA042AB
:100C5000FAD370BD5C00002070470000044910B555
:100C60000A68024202D00860FFF7F6FF10BD0000DC
:100C7000143C01402DE9F84FDFF87CB100224FF021
:100C800001084FF0030A4FF00F090BF1040E00BFEB
:100C90000B6808FA02F42340A3426ED14D68022D7E
:100CA00001D0122D0ED1D50800EB850CDCF82050B8
:100CB0005607F70E09FA07F6B5430E69BE402E43F4
:100CC000CCF82060066855000F790AFA05FC07F099
:100CD000030726EA0C06AF40374307604E68012E33
:100CE00005D0022E03D0112E01D0122E0ED186680F
:100CF000CF6826EA0C06AF40374387604668A643B4
:100D00000C79C4F30014944034434460C6688C6882
:100D100026EA0C06AC403443C4604C68E40065D558
:100D2000364C256845F480452560246822F003058B
:100D300004F480440094324C2E19D6F808489507E4
:100D40002F0F09FA07F5AC432E4DA84201D100251B
:100D500024E02D4DA84201D101251FE02B4DA842D2
:100D600001D102251AE02A4DA84201D1032515E040
:100D7000284DA84202D1042510E037E0264DA842B4
:100D800001D105250AE0254DA84201D1062505E03F
:100D9000234DA84201D1072500E00825BD40254389
:100DA000C6F80858DBF800405D464E689C43F603E1
:100DB00000D51C432C60DEF8004075464E689C430D
:100DC000B60300D51C432C600B4D08352C684E68CB
:100DD0009C43F60200D51C432C60074D0C352C6853
:100DE0004E689C43B60200D51C432C60521C102A4E
:100DF000FFF44EAFBDE8F88F003C0140443802409C
:100E0000003001400000024000040240000802409F
:100E1000000C024000100240001402400018024082
:100E2000001C02400069084000D0012070470AB150
:100E3000816170470904FBE7014880687047000042
:100E40005C0000200248816802781144816070478C
:100E50005C0000200B4810B5016841F4007101608E
:100E6000016841F480610160016841F480710160B2
:100E7000032000F097F8002000F006F800F024F8B6
:100E8000002010BD003C024070B50D4D04464FF4EB
:100E90007A712878B1FBF0F00A490968B1FBF0F0EB
:100EA00000F035FC48B9102C07D200222146501E14
:100EB00000F058F800206C6070BD012070BD00008B
:100EC0005C000020680000201F4808B5016841F45C
:100ED00080410160006800F4804000901A48001FC3
:100EE000016841F080510160006800F0805000907E
:100EF000032000F057F8002211466FF00B0000F0BD
:100F000031F8002211466FF00A0000F02BF80022A1
:100F100011466FF0090000F025F800221146501F1D
:100F200000F020F800221146101F00F01BF80022EC
:100F30001146901E00F016F80022BDE80840114648
:100F4000501E00F00FB800004438024000F01F02AD
:100F5000012191404009800000F1E020C0F800111B
:100F600070470000F0B40E4B1B680C46C3F302231D
:100F7000C3F10705042D00D90425191D072901D245
:100F8000002300E0DB1E012606FA05F1491E214080
:100F900099409E40761E16403143F0BC01F022BDC0
:100FA0000CED00E0064900F0070208684FF6FF0369
:100FB000184040EA0220034A1043086070470000CE
:100FC0000CED00E00000FA052DE9F0470E460500A3
:100FD00065D0DFF81481D8F80000F7B200F00F00F8
:100FE000B04207D288F80070D8F8000000F00F0077
:100FF000B04254D128683D4C810712D5400703D533
:10100000206840F4E05020602878000703D520686D
:1010100040F4604020602068A96820F0F000084398
:1010200020602878C0072DD0304968680839012829
:1010300012D0022813D0032811D00968890700298B
:101040002DDA216821F0030101432160FFF7F4FE4E
:10105000814641F2883A0EE009688903EFE70968A2
:101060008901ECE7FFF7E8FEA0EB0901514502D941
:101070000320BDE8F0872068696800F00C00B0EB41
:10108000810FEFD1D8F80010404601F00F01B142B6
:1010900007D90770006800F00F00B04201D00120AE
:1010A000E7E72878400705D52068E96820F4E05094
:1010B000084320602878000706D52068296920F4B5
:1010C000604040EAC100206000F03CF82168084A16
:1010D000C1F30311515CC840064908600020FFF7C6
:1010E000D3FE0020C5E70000003C02400838024063
:1010F000303A00086800002001480068704700008E
:10110000680000200448054900680968044AC1F3E2
:101110008221515CC84070476800002008380240B6
:10112000403A00080448054900680968044AC1F3C8
:101130004231515CC84070476800002008380240C6
:10114000403A0008154810B5006810F00C02144829
:1011500013D04110042A0FD0082A0ED10F4C241F9F
:101160002268236802F03F025B0207D52068C0F3C3
:101170008810A0FB010106E0084610BD2168C1F3FC
:101180008811A1FB00010023FFF71AF82168C1F3C1
:101190000141491C4900B0FBF1F010BD0838024084
:1011A0000024F4002DE9F84F050076D02878DFF808
:1011B000F8B2BE4CC00749D0DBF800105846C1F366
:1011C0008101012908D00068C0F3810002280AD1FA
:1011D000201D0068400206D52068800336D5686867
:1011E0000028E2D032E06868B0F5803F10D0B0F55A
:1011F000A02F206810D020F480302060206820F4D8
:10120000802020606868A0B1FFF716FE06460CE05B
:10121000206840F48030F4E740F480202060F7E755
:10122000FFF70AFE801B642873D820688003F7D577
:101230000CE0FFF701FE064605E000BFFFF7FCFDEE
:10124000801B6428F0D820688003F7D42878DFF862
:10125000608280074FF000093ED5DBF80010584649
:1012600011F00C0F09D00068C0F3810002280BD1E7
:101270008D48001F0068400206D42068800715D5FD
:10128000E868012809D111E0E868B8B10120C8F880
:101290000000FFF7D1FD064605E002E1FFF7CCFDB7
:1012A000801B0228C0D820688007F7D520682969EC
:1012B00020F0F80040EAC10020600DE0C8F800907E
:1012C000FFF7BAFD064604E0FFF7B6FD801B0228D3
:1012D0001FD820688007F7D42878000722D5724EDF
:1012E000744869696C3671B101210160FFF7A4FD92
:1012F000074604E0FFF7A0FDC01B022809D83068AC
:101300008007F7D50EE0C0F80090FFF795FD07467F
:1013100005E083E0FFF790FDC01B02287ED830680F
:101320008007F7D42878400768D5DFF87CA100272C
:101330000AF1380ADAF80000C0000BD4DAF800101D
:1013400041F08051CAF80010DAF80000012700F0DF
:1013500080500090584E3068C00510D4306840F47A
:1013600080703060FFF768FD009005E0FFF764FDD6
:101370000099401A022851D83068C005F6D54A4E67
:10138000A868683601280FD00528306810D020F0F2
:1013900001003060306820F004003060A868B8B107
:1013A000FFF74AFD00900FE0306840F00100F4E7DD
:1013B00040F004003060F7E7FFF73EFD0099411A66
:1013C00041F28830814264D830688007F4D50EE05D
:1013D000FFF732FD009007E0FFF72EFD0099411A5C
:1013E00041F28830814254D830688007F4D42FB15C
:1013F000DAF8001021F08051CAF80010A869C0B3D3
:10140000DBF80010C1F3810102294AD002284846C6
:1014100007D0C8F86000FFF70FFD00E039E005468F
:101420003AE04746C8F86000FFF706FD064604E0CC
:10143000FFF702FD801B02282BD820688001F7D41B
:10144000D5E907010843A96A1C4A490802EB014192
:101450006A6A41EA8211084395F82C1040EA01615A
:101460001148001F016001203866FFF7E5FC0546C2
:1014700005E014E0FFF7E0FC401B022809D82068D3
:101480008001F7D50BE000BFFFF7D6FC401B022818
:1014900002D90320BDE8F88F20688001F4D4002031
:1014A000F8E70120F6E70000083802400038024063
:1014B00000004742800E4742007000400000FFFFDE
:1014C00070B5040005D00025A56294F8510010B154
:1014D00006E0012070BD84F85050204600F030F83E
:1014E000022084F851002068016821F04001016069
:1014F000D4E901010843D4E90312114308436169A7
:101500000843218B01F400710843E1690843216A13
:101510000843A16A084321680860A069042101EA20
:101520001040616A0843216848602068C16921F45D
:101530000061C1616565012084F85100002070BD23
:1015400000B500680E4987B0884216D10D480021C9
:10155000026842F480520260006800F480500590F6
:10156000E02000900220CDE9010103200390052036
:10157000049069460448FFF77DFB07B000BD0000FA
:101580000030014044380240000002402DE9F84F8D
:10159000044690F850000026994617460D4601284B
:1015A0000DD04FF0010B84F850B0FFF745FC80469A
:1015B00094F85100B246012804D0022694E002209B
:1015C000BDE8F88F002D7BD0002F79D0032084F860
:1015D0005100C4F854A02563A786E786C4F838A054
:1015E000A4F83CA0A4F83EA0C4F844A0C4F840A0CD
:1015F000A068B0F5004F04D12068016841F4804133
:10160000016020680168490603D4016841F0400187
:101610000160E068B0F5006F606804D030B3E08E20
:10162000012823D03EE010B1E08E01281AD135F810
:10163000021B206805E020688168890706D535F817
:10164000021BC160E08E401EE0860BE0B9F1000F86
:1016500034D0B9F1FF3F05D0FFF7EEFBA0EB080156
:1016600049452BD2E08E0028E5D11EE0216815F80F
:10167000010B087306E020688168890706D515F814
:10168000011B0173E08E401EE0860BE0B9F1000FF4
:1016900014D0B9F1FF3F05D0FFF7CEFBA0EB080156
:1016A00049450BD2E08E0028E5D14B4601220221AC
:1016B0002046CDF8008001F0F1F910B1032613E0C7
:1016C00011E042464946204601F0D8F918B10126FA
:1016D0002020606508E0A06818B92068C1688068AB
:1016E0000090606D00B1012684F851B084F850A0DC
:1016F000304665E74FF0E0210428086903D020F068
:1017000004000861704740F00400FAE7704710B524
:10171000401EB0F1807F01D3012010BD4FF0E024C6
:1017200060610F21601701F05DF90020A0610720C2
:101730002061002010BD10B5FFF7E8FF10BD704715
:10174000704730B590F83820012A20D0012280F867
:101750003820022380F8393003685C6824F0700474
:101760005C6003685C680D682C435C6003689C687F
:1017700024F080049C6003689C6849680C439C606A
:1017800080F83920002180F83810084630BD02204A
:1017900030BD10B5040003D094F8390010B107E053
:1017A000012010BD002084F83800204600F00CF81D
:1017B000022084F83900211D206801F083FA0120FD
:1017C00084F83900002010BD10B501682C480022B3
:1017D0000223012486B0814219D12A48016841F0D0
:1017E000010101600068694600F0010005901802DF
:1017F0000090CDE90132CDE903242348FFF73AFAFE
:10180000002211461B20FFF7ADFB1B2027E01D48DF
:10181000001FB1F1804F0AD01C4A914223D10168C8
:1018200041F002010160006800F0020025E001685B
:1018300041F0010101600068694600F00100059077
:1018400008200090CDE90132CDE903241048FFF7CC
:1018500011FA002211461C20FFF784FB1C20FFF721
:1018600075FB06B010BD0B4A9142FAD1016841F0F8
:1018700004010160006800F004000590F1E7000039
:1018800000000140443802400010024000040040C3
:10189000000002400008004070B5044690F838008F
:1018A000012817D0012584F83850022084F8390027
:1018B0002068826822F0770222F47F428260086802
:1018C000502837D00DDC202859D005DC88B31028EB
:1018D00041D151E0022070BD302853D040283AD188
:1018E0003FE060282ED070280BD0B0F5805F03D089
:1018F000B0F5005F2FD110E02068816821F007016A
:1019000015E0CB68D1E90121206801F046FA216891
:10191000886840F0770088601DE0CB68D1E901213C
:10192000206801F03AFA2068816841F480418160C2
:1019300011E01EE0CA684968206801F0F7FA5021FA
:10194000206806E0CA684968206801F043FB60210E
:10195000206801F02CFA84F83950002084F838000F
:1019600070BDCA684968206801F0E0FA402120682B
:10197000EFE700212068ECE710212068E9E720214B
:101980002068E6E730212068E3E7000010B503682F
:101990000021084AB3F1804F03D15B6A13630368E7
:1019A0005962054C0368A34203D15B6AD3610068A6
:1019B000416210BD14000020000001402DE9F041FB
:1019C000044690F838000D4601283DD0012684F8E1
:1019D0003860022084F83900AAB3042A46D020686F
:1019E000082A55D0D5E90027E968036A23F4805313
:1019F0000362D0F81CC0036A2CF4407C4CEA072731
:101A00004FF6FF7C27F470470CEA013139434FF45D
:101A1000204723F4204307EA02321A43C1610262DD
:101A20002068C16921F44061C1612068C169AA6868
:101A300041EA0221C0F81C1084F83960002084F8C3
:101A40003800BDE8F08101E00220FAE7D5E9001294
:101A5000EB68206801F07CFA2068816921F00C01B4
:101A6000816120688169AA6811430FE0D5E90012FD
:101A7000EB68206801F0C0FA2068816921F44061B8
:101A8000816120688169AA6841EA02218161D3E706
:101A9000D5E9002C2F7B016A21F480710162C169B4
:101AA000036A21F0030141EA0C0121F0F00C39072F
:101AB0004FF420674CEA116123F4206307EA022205
:101AC0001A43C16102622068C16921F00C01C16141
:101AD0002068C169AA681143ACE710B5040003D0BF
:101AE00094F8390010B107E0012010BD002084F8FF
:101AF0003800204600F00CF8022084F83900211D3F
:101B0000206801F0DFF8012084F83900002010BDC2
:101B1000704710B50268044631B1042908D008297D
:101B200015D00C2908D116E0D06840F0020002E080
:101B3000D06840F00400D0600122206801F022F952
:101B40002068016841F001010160002010BDD068EB
:101B500040F00800EFE7D06840F01000EBE770B508
:101B60000446006801694FF00005C943890715D490
:101B7000C168C943890711D4E91E0161012020769B
:101B8000206880698007204602D0FFF7FFFE04E04E
:101B900000F0C0F8204600F042F92576206801697F
:101BA000C943490717D4C168C943490713D46FF023
:101BB00004010161022020762068806910F4407FD2
:101BC000204602D0FFF7E2FE04E000F0A3F8204632
:101BD00000F025F9257620680169C943090716D464
:101BE000C168C943090712D46FF0080101610420DC
:101BF00020762068C0698007204602D0FFF7C6FE25
:101C000004E000F087F8204600F009F92576206806
:101C10000169C943C90617D4C168C943C90613D4A9
:101C20006FF010010161082020762068C06910F46F
:101C3000407F204602D0FFF7A9FE04E000F06AF8DA
:101C4000204600F0ECF8257620680169C943C907F1
:101C500008D1C168C943C90704D1891E0161204662
:101C600000F0FAF820680169C943090609D4C1687F
:101C7000C943090605D46FF0800101612046FFF7D2
:101C80005EFD20680169C943490609D4C168C9439A
:101C9000490605D46FF040010161204600F0DDF8EF
:101CA00020680169C94389060BD4C168C943890604
:101CB00007D46FF0200101612046BDE87040FFF7B6
:101CC0003FBD70BD00B50F4B02680020022185B0FA
:101CD0009A4208D133220092CDE90110CDE90301E7
:101CE000694609480AE0094B9A4209D1D213009289
:101CF000CDE90110CDE9030169460548FEF7BAFFB9
:101D000005B000BD0004004000040240000800408F
:101D1000000C0240704770B5044690F838000D463C
:101D200001280DD0012684F83860022084F839009B
:101D300042B1042A18D0082A2AD00C2A4DD139E001
:101D4000022070BD206801F03BF82068816941F0F5
:101D5000080181612068816921F0040181612068A6
:101D600081692A69114311E0206801F055F8206863
:101D7000816941F4006181612068816921F4806199
:101D80008161206881692A6941EA0221816124E038
:101D9000206801F073F82068C16941F00801C16151
:101DA0002068C16921F00401C1612068C1692A6904
:101DB000114311E0206801F091F82068C16941F4F5
:101DC0000061C1612068C16921F48061C16120683E
:101DD000C1692A6941EA0221C16184F839600020A1
:101DE00084F8380070BD10B5040003D094F83900B1
:101DF00010B107E0012010BD002084F83800204613
:101E000000F00CF8022084F83900211D206800F051
:101E100059FF012084F83900002010BD7047704739
:101E200010B504460068012200F0ACFF08492068A4
:101E3000884202D00749884203D1416C41F40041F5
:101E400041642068016841F001010160002010BD7B
:101E500000000140000401407047704770B5040065
:101E600004D094F83900002510B106E0012070BDBF
:101E700084F83850204600F023F8242084F83900F4
:101E80002068C16821F40051C160204601F0D0F8FB
:101E90002068016921F4904101612068416921F0C5
:101EA0002A0141612068C16841F40051C160E563C5
:101EB000202084F8390084F83A00002070BD00002A
:101EC000F0B50068104987B088421AD10F48016800
:101ED00041F4003101600068022400F400300590F4
:101EE00004200125032607278DE8F10069460848EC
:101EF000FEF7C0FE40208DE8F10069460548FEF778
:101F0000B9FE07B0F0BD0000004400404038024078
:101F100000000240000C0240FEE710B514460B46DC
:101F2000024600F031F9200A00F010F9E0B2BDE8F5
:101F3000104000F00BB9000070B5054610484FF492
:101F4000963440F23F120178012906D0032904D0CB
:101F5000022905D0042903D007E01346EF2200E050
:101F6000EF230021084600F00FF92E0A3046641EC8
:101F700000F0ECF8E8B200F0E9F8002CF6D170BD02
:101F80000000002070B5141A5E1A641C761C74439D
:101F90004FF49636049DB44200D934469BB292B2B7
:101FA00089B280B200F0F0F82E0A06E03046641ED6
:101FB00000F0CCF8E8B200F0C9F8002CF6D170BD02
:101FC0002DE9F047884608A9154691E8C004014666
:101FD000994658224C48FEF724F94C4C4046294675
:101FE000C4F808806580C4F80C90A6800122FEF732
:101FF0001EFF2761A4F806A0012251463846FEF7CD
:1020000016FF012000F084F86420FEF713FE28205C
:1020100000F07EF8C02000F07BF8262000F096F853
:10202000C12000F075F8112000F090F8C52000F0F4
:102030006FF8352000F08AF83E2000F087F8C720BE
:1020400000F066F8BE2000F081F8362000F060F85D
:10205000482000F07BF83A2000F05AF8552000F0B4
:1020600075F8B12000F054F8002000F06FF81F2040
:1020700000F06CF82A2000F04BF8002000F066F821
:10208000002000F063F8002000F060F8EF2000F07E
:102090005DF82B2000F03CF8002000F057F80020FD
:1020A00000F054F8012000F051F83F2000F04EF805
:1020B000342000F02DF8B72000F02AF8072000F0B7
:1020C00045F8B62000F024F80A2000F03FF88220FE
:1020D00000F03CF8272000F039F8002000F036F836
:1020E000112000F015F86420FEF7A4FD292000F06F
:1020F0000FF86420FEF79EFD2C2000F009F8BDE8E3
:10210000F0470520FEF796BD6C000020000000207F
:1021100038B50C4C8DF800000022A188E068FEF76D
:1021200086FE00226188A068FEF781FE0523012259
:1021300069460548FFF72AFA01226188A068FEF780
:1021400076FE38BD000000206C00002038B50C4C35
:102150008DF800000122A188E068FEF768FE0022E9
:102160006188A068FEF763FE0523012269460548E1
:10217000FFF70CFA01226188A068FEF758FE38BD0F
:10218000000000206C0000202DE9F04107461C46AD
:1021900015460E462A20FFF7BBFF380AFFF7D6FF89
:1021A000F8B2FFF7D3FF280AFFF7D0FFE8B2FFF736
:1021B000CDFF2B20FFF7ACFF300AFFF7C7FFF0B2CF
:1021C000FFF7C4FF200AFFF7C1FFE0B2FFF7BEFF31
:1021D000BDE8F0412C20FFF79BBF00002DE9FE4F2A
:1021E0009A463C4B88460D9C197881464FF4A07561
:1021F00004EB4400012911D003290FD0B8F1F00FEE
:102200005BDAA94559DA08EB4000012855D409EBFF
:10221000C400012851D4587860B10FE0B9F1F00F33
:102220004BDAA84549DA09EB4000012845D408EB10
:10223000C400EEE7B02A01D3521CD2B204EB09006D
:10224000029008F101000190234902EB8200002571
:1022500000EB010B01E0052D09D01BF805700026ED
:10226000F8070ED0012C04D0CDF800A00FE0002715
:10227000F5E708EB060081B209EB050080B2524693
:1022800024E00C9850450FD0012C18D000900298F3
:1022900006FB044105FB040201980B1806FB0481B0
:1022A00005FB0490FFF76EFE761C7F0876B2082EC1
:1022B000D6DB6D1C6DB2062DCDDBBDE8FE8F08EBC5
:1022C000060081B209EB050080B20C9AFFF725FEEB
:1022D000EAE70000000000203035000808B502449D
:1022E000521E009312B20B4600F00AF808BD08B562
:1022F0000A44521E009313B2024600F001F808BDD2
:102300002DE9F05F0C4606461546191BA2EB0600A8
:1023100000D54942002800DA4042814207DD3046BC
:1023200026461D464FF001080446134601E04FF0D3
:102330000008AE4205DD30462E46054620461C46C6
:102340000346A81B0FFA80F9181B00D540420FFA6C
:1023500080FB09EBD97047109C4201DA012001E0B3
:102360004FF0FF30824617E0B8F1000F02D0B1B253
:10237000A0B201E0A1B2B0B20A9AFFF7CEFDA7EB7E
:102380000B0007B2002F05DA04EB0A0004B207EBDA
:10239000090007B2761C36B2AE42E5DDBDE8F09F1B
:1023A0002DE9FC4107461446012000EB440002B22F
:1023B0000D46081B01B21E463846FFF798FF002065
:1023C000CDE90006032322462946384600F0E6FF01
:1023D000BDE8FC812DE9FC5F0746DDE90C9606EBC4
:1023E000460045009B469246884600240DE000BF0B
:1023F00005FB0480CDE9009600B25B465146FFF72D
:10240000EDFE641CA4B2282C02D23A5D002AEFD162
:10241000BDE8FC9F10B501221349012805D0022810
:1024200009D003280ED0042813D00A703620FFF7F5
:102430006FFE882013E0022008703620FFF768FE48
:1024400028200CE0032008703620FFF761FE4820AA
:1024500005E0042008703620FFF75AFEE820BDE8AA
:102460001040FFF773BE0000000000202DE9F0418E
:10247000174C01260025A0883703DFF85880012873
:1024800016D0002239464046FEF7D1FCC820FEF7A0
:10249000D1FB2681E58039464046FEF7C3FC20612A
:1024A00000284FF05A000ED0BDE8F041FEF7D5B934
:1024B000012239464046FEF7BAFCC820FEF7BAFBB7
:1024C000E6802581E7E7BDE8F041FEF7AFB90000FF
:1024D00014000020000C024070B513480068426AE6
:1024E0001248134D4FF48044C26242F228308242B7
:1024F0000FD208210F48FEF795FC012813D10122C5
:1025000021462846FEF793FCBDE870403C20FEF7CC
:10251000A4B9002221462846FEF789FCBDE8704098
:102520003C20FEF783B970BDE801002014000020B4
:10253000000C0240000002407FB512481049002400
:1025400001604FF48031416004618461490204629A
:1025500081600D49C0E90A140125C460C561456167
:102560000463FEF73EFA00B1FEE7CDE90045694697
:1025700004480294FEF78CF9002800D0FEE77FBDE6
:1025800000200140C40000200100000F7FB5124868
:102590001049002401604FF480314160046184617E
:1025A0004902046281600D49C0E90A140125C46032
:1025B000C56145610463FEF714FA00B1FEE70095BA
:1025C000CDE9015469460448FEF762F9002800D0BD
:1025D000FEE77FBD002101400C0100200100000F3B
:1025E0002DE9F04F654887B00024016841F00401EF
:1025F0000160016801F004010591016841F080016A
:102600000160016801F080010591016841F001015C
:102610000160016801F001010591016841F00201CA
:102620000160016801F002010591016841F01001AB
:102630000160016801F010010591016841F0080195
:1026400001600068DFF838B100F008004FF4E0499D
:102650000590002249465846FEF7E9FB4FF4E07A20
:10266000002251464748FEF7E2FB4FF40077002274
:1026700039464548FEF7DBFB002240214348FEF780
:10268000D6FB082000900225CDE901540526CDE9AE
:10269000034669463B48FEF7EDFA10200090CDE96D
:1026A00001544FF00608CDE9034869463648FEF765
:1026B000E1FA68020090CDE90154CDE9034669468C
:1026C0003248FEF7D7FAA80200903148CDE901045C
:1026D00069465846FEF7CEFA0126CDF80090CDE9BE
:1026E0000164694658460394FEF7C4FACDF800A089
:1026F000CDE90164694623480394FEF7BBFA0097CD
:10270000CDE90164694620480394FEF7B3FA4FF41B
:10271000E0500090CDE901540A20CDE9034069461C
:102720001948FEF7A7FA4FF4A0500090CDE90154E4
:10273000CDE9034869461348FEF79CFA4020009013
:10274000CDE90164694611480394FEF793FA12201B
:102750000097CDE901060420CDE9034069460B4806
:10276000FEF788FA002211462820FEF7FBFB2820FE
:10277000FEF7ECFB07B0BDE8F08F000030380240F8
:10278000000C024000080240000002400004024029
:10279000000011100E4810B50C4901604FF4827111
:1027A000416000218160C1604FF400720161C0E9A5
:1027B0000512C1610162416281620A21C162FEF7B4
:1027C0007FFE002800D0FEE710BD00000030014071
:1027D0005401002010B51C488AB01A4901606421D8
:1027E0000024C0E9011444F62061C0E903144461E7
:1027F000FEF7CFFF00B1FEE74FF48050049004A92C
:102800001148FFF749F800B1FEE70F48FFF765F9F7
:1028100000B1FEE7089408A90B480994FEF791FF60
:1028200000B1FEE70A2000900120CDE9010400225A
:10283000694605480394FFF7C1F8002800D0FEE779
:102840000AB010BD00000140AC01002010B51B48CB
:102850008AB04FF0804101604FF47A510024C0E902
:1028600001141749C0E90314FEF793FF00B1FEE716
:102870004FF48050049004A91048FFF70DF800B100
:10288000FEE70E48FFF729F900B1FEE7089408A912
:102890000A480994FEF755FF00B1FEE70120CDE993
:1028A00000400F20CDE902400C2269460348FFF7A3
:1028B00085F8002800D0FEE70AB010BDE80100202E
:1028C000A086010010B526488EB024490024C0E936
:1028D00000144FF6FF71C0E902410461FEF759FF91
:1028E00000B1FEE74FF48050079007A91C48FEF79F
:1028F000D3FF00B1FEE71A48FFF775FA00B1FEE713
:102900000B940BA916480C94FEF71BFF00B1FEE7D1
:102910006020CDE900040294002269461048049426
:10292000FFF7F9F900B1FEE7042269460C48FFF70A
:10293000F2F900B1FEE7082269460948FFF7EBF912
:1029400000B1FEE70C2269460548FFF7E4F900B143
:10295000FEE70348FFF7B6F90EB010BD00040040D3
:102960002402002010B51D488EB01B4901600A21C9
:102970000024C0E9011440F27121C0E90314FEF7FC
:1029800008FF00B1FEE74FF48050079007A91348F5
:10299000FEF782FF00B1FEE71048FFF724FA00B10E
:1029A000FEE70B940BA90D480C94FEF7CAFE00B18C
:1029B000FEE7602000906420CDE901040C22694606
:1029C00006480494FFF7A7F900B1FEE70348FFF7B4
:1029D00079F90EB010BD0000000800406002002030
:1029E000FEE770470907090E002806DA00F00F001D
:1029F00000F1E02080F8141D704700F1E02080F81D
:102A0000001470477047000010B51748FEF796F89D
:102A10004FF0FF311448FEF73FF8144C98B91248B4
:102A2000FDF7DCFF20702078FDF77CFC9FED101B8C
:102A300053EC112BFDF707FCFDF781FC607060780B
:102A40000D49096808646078C0F164006061A1699B
:102A5000884203D0FDF7D4FE6069A061BDE8104054
:102A60000148FEF7C9B80000C4000020140000208F
:102A700066666666666604406002002038B50B46EE
:102A8000009204460022802100F008F8002804D0BB
:102A9000606D40F020006065032038BD2DE9F041F5
:102AA0001D4617460E460446DDF8188035E0681CC2
:102AB00033D02DB1FEF7C0F9A0EB0800A8422CD30B
:102AC0002068416821F0E00141606068B0F5827FD4
:102AD0000BD1A068B0F5004F02D0B0F5806F04D1E3
:102AE0002068016821F040010160A06AB0F5005F34
:102AF0000AD1206801684DF6FF721140016020681C
:102B0000016841F400510160012084F85100002067
:102B100084F850000320BDE8F0812068806836EA20
:102B2000000004D00020B842C1D10020F3E701200A
:102B3000F9E770471B4910B50888401C08804FF41E
:102B400000611948FEF76EF918490128088022D162
:102B50001748184B00220088012804D01648008826
:102B600001280DD017E04A808888401C82B28A80F4
:102B7000886882420FDB401C8880012018800AE0B0
:102B80004888401C84B24C808A808868844202DB7A
:102B9000401C48801A80FEF755F9BDE81040FEF74A
:102BA000CABD00004C000020000C02405000002074
:102BB0001C000020180000201A00002030B5244816
:102BC00093B00024016841F080510160006800F07A
:102BD000805011901F48016841F4804101600068F5
:102BE000022500F4804011900120039010200490F1
:102BF000009506950820CDE907405020CDE909054C
:102C000007200B906846FEF7CDFA00B1FEE70F20D3
:102C1000CDE90C054FF48050CDE90E4002210CA8FF
:102C20001094FEF7D1F900B1FEE7FEF765FA4FF414
:102C30007A71B0FBF1F0FEF76AFD0420FEF75AFD51
:102C400000221146501EFEF78DF913B030BD000072
:102C500040380240007000401048016841F47001A3
:102C600001600F48016841F0010101600C4A002138
:102C70000832116002680B4B1A400260031D0A4AB9
:102C80001A60026822F48022026005480C3001605C
:102C900002495806803908607047000088ED00E05E
:102CA00000380240FFFFF6FE103000240148FEF716
:102CB00056BF0000AC0100200148FEF750BF0000E5
:102CC000E8010020F0B50268234B244D244E254F27
:102CD000254C4FF0804C984209D0604507D0A8425F
:102CE00005D0B04203D0B84201D0A04204D122F0B6
:102CF000700E4A6842EA0E0298421BD0604519D015
:102D0000A84217D0B04215D0B84213D0A04211D07B
:102D1000164DA8420ED0164DA8420BD0154DA84214
:102D200008D0154DA84205D0144DA84202D0144D2C
:102D3000A84203D122F44075CA682A4302608A6817
:102D4000C2620A688262984201D0A04201D1096938
:102D5000016301214161F0BD000001400004004019
:102D600000080040000C0040000401400040014009
:102D7000004401400048014000180040001C004091
:102D80000020004010B50123046A8B409C4304627C
:102D9000036A8A401343036210BD10B5846842EA97
:102DA000032224F47F440A432243826010BD8268D8
:102DB00022F070020A4342F0070181607047000070
:102DC00030B5026A22F001020262026A4368846935
:102DD0000D6824F07304254322F002048A6822431C
:102DE0000B4CA04202D00B4CA0420BD122F00804A5
:102DF000CA6823F4407322434C6922F004021C4346
:102E00008B6923434360856149684163026230BD39
:102E1000000001400004014030B5026A22F01002B7
:102E20000262026A436884690D6824F4E64444EA55
:102E300005248D6822F0200242EA05120D4DA842B9
:102E400002D00D4DA8420ED1CD6822F0800242EA98
:102E500005124D6923F4406343EA85038D6922F02E
:102E6000400243EA850343608461496881630262EA
:102E700030BD0000000001400004014030B5026A8E
:102E800022F480720262036A4268C46923F4007308
:102E900024F073050C682C438D6843EA05230D4D1F
:102EA000A84202D00C4DA8420ED1CD6823F4006395
:102EB00043EA05234D6922F4405242EA05128D6926
:102EC00023F4806342EA05124260C4614968C16329
:102ED000036230BD000001400004014030B5026AC9
:102EE00022F480520262046A4268C3690D6823F4C6
:102EF000E64343EA05238D6824F4005444EA05348C
:102F0000084DA84202D0084DA84204D14D6922F4D0
:102F1000804242EA85124260C361496801640462EA
:102F200030BD0000000001400004014010B5036AFC
:102F3000046A24F001040462846924F0F00444EA81
:102F4000021423F00A020A438461026210BD0000E9
:102F500070B5046A24F0010404628469056A164E9F
:102F6000B04214D0B0F1804F11D0144EB0420ED008
:102F7000134EB0420BD0134EB04208D0124EB042A6
:102F800005D0124EB04202D0114EB04203D124F00F
:102F90000304144303E024F0030242F001041A077F
:102FA00024F0F00444EA126225F00A0301F00A0159
:102FB00019438261016270BD0000014000040040BD
:102FC00000080040000C00400004014000400140A7
:102FD0000018004010B5036A23F0100303628369F0
:102FE000046A23F4704343EA023224F0A00343EA64
:102FF00001118261016210BD30B5046A24F0100431
:1030000004628469056A24F4407444EA022222F4CA
:1030100070444FF6FF7202EA03322243A02425F0E7
:10302000A00304EA011119438261016230BD00006E
:103030002DE9F04104460068016921F44052E1683D
:10304000114301612168C86849F20C629043236909
:10305000A268E5691A4363692B431A430243CA60B5
:103060002168486920F44072A06910434861E16911
:103070006425B1F5004F9748974A21684FF0320810
:103080003FD0914201D081427CD1FEF74BF800EB5A
:10309000C00101EB001061688900B0FBF1F6FEF79A
:1030A00041F800EBC00101EB001061688900B0FB42
:1030B000F1F0B0FBF5F06FF01801484306EB80012A
:1030C00008EB0110B0FBF5F000F0F006FEF72AF86F
:1030D00000EBC00101EB001061688900B0FBF1F06A
:1030E000B0FBF5F006EB0016FEF71CF800EBC00194
:1030F00001EB001061688900B0FBF1F7FEF712F8F0
:10310000D2E0914201D081423DD1FEF70BF800EBB5
:10311000C00101EB001061684900B0FBF1F0B0FBA9
:10312000F5F00601FDF7FEFF00EBC00101EB00101A
:1031300061684900B0FBF1F7FDF7F4FF00EBC00157
:1031400001EB001061684900B0FBF1F0B0FBF5F055
:103150006FF01801484307EB800108EBC100B0FB9A
:10316000F5F000F0F80006EB4006FDF7DBFF00EBA2
:10317000C00101EB001061684900B0FBF1F7FDF7F9
:10318000D1FF3CE055E0FDF7BDFF00EBC00101EBD6
:10319000001061684900B0FBF1F0B0FBF5F00601EA
:1031A000FDF7B0FF00EBC00101EB001061684900C2
:1031B000B0FBF1F7FDF7A6FF00EBC00101EB00103B
:1031C00061684900B0FBF1F0B0FBF5F06FF0180159
:1031D000484307EB800108EBC100B0FBF5F000F0BD
:1031E000F80006EB4006FDF78DFF00EBC00101EB98
:1031F000001061684900B0FBF1F7FDF783FF00EBB9
:10320000C00101EB001061684900B0FBF1F0B0FBB8
:10321000F5F06FF01801484307EB800108EBC1009F
:10322000B0FBF5F000F00700216830448860BDE88D
:10323000F081FDF767FF00EBC00101EB0010616852
:103240008900B0FBF1F6FDF75DFF00EBC00101EB7B
:10325000001061688900B0FBF1F0B0FBF5F06FF091
:103260001801484306EB800108EB0110B0FBF5F0B4
:1032700000F0F006FDF746FF00EBC00101EB001087
:1032800061688900B0FBF1F0B0FBF5F006EB0016C9
:10329000FDF738FF00EBC00101EB00106168890009
:1032A000B0FBF1F7FDF72EFF00EBC00101EB0010C2
:1032B00061688900B0FBF1F0B0FBF5F06FF0180128
:1032C000484307EB800108EB0110B0FBF5F000F07C
:1032D0000F00A9E7001401400010014070B5214C17
:1032E000214D608878B9012240212846FDF79FFDD5
:1032F0000020FDF79FFC002240212846FDF797FDA6
:103300003B20FDF797FCE0693A21B0FBF1F000EEBD
:10331000100A16484FF48076B8EE400A10EE102AD4
:1033200084ED030A824204DA7820FDF796FA01223E
:1033300008E010EE100A0E49884207DD7820FDF7FC
:1033400075FA002231462846FDF771FD4FF40071F1
:103350000848FDF767FD608007480068406A6063C1
:1033600070BD000014000020000802400000A041D1
:103370000000C84100100240AC010020FEE702E05E
:1033800008C8121F08C1002AFAD1704770470020F0
:1033900001E001C1121F002AFBD170472DE9FF5F38
:1033A0008146C2F1010006B2C2EBC23040000127E3
:1033B00088460FFA80FB00251446DDF838A04AE065
:1033C000002E08DB0BF102000FFA80FB641E06EBF7
:1033D0000B0024B206B2BF1C6D1C3FB2F01906B23E
:1033E00003982DB2C00719D00AEB4400401C02B26A
:1033F000A8EB040001B209EB050000B20F9BFEF739
:1034000076FF0AEB4500401C02B2A8EB050001B2B2
:1034100009EB040000B20F9BFEF769FF03988007D9
:1034200019D50AEB4400401C02B2A8EB040001B21B
:10343000A9EB050000B20F9BFEF759FF0AEB450010
:10344000401C02B2A8EB050001B2A9EB040000B2D7
:103450000F9BFEF74CFFA542B2DBBDE8FF9F0000CB
:10346000FDF7F8FCFFF7AAFBFFF7BAF8FFF764F8DF
:10347000FFF7B0F9FFF7EAF9FFF774FAFFF786F8FC
:10348000FFF720FAFFF786F9264825490C2201604C
:103490004FF4E131416000218160C160C0E9041254
:1034A0008161C161FEF7DAFC00B1FEE7FDF782F849
:1034B0003C20FDF7BBF91B480C21B438FEF729FB73
:1034C00018480021F038FEF724FB1648042178380C
:1034D000FEF7A6FC134808217838FEF7A1FC114836
:1034E0000C217838FEF79CFC0E4800217838FEF756
:1034F00097FC0D48FDF722FB0C494CF25030086058
:1035000008480C213C38FEF78BFC00BFFEF7AEFFED
:10351000FEF7E2FFFFF7E2FEFFF776FAF6E70000BC
:10352000004400409C0200200C01002034040040B4
:1035300000000000003E5B4F5B3E3E6B4F6B3E1C4D
:103540003E7C3E1C183C7E3C181C577D571C1C5E64
:103550007F5E1C00183C1800FFE7C3E7FF0018243B
:103560001800FFE7DBE7FF30483A060E26297929E5
:1035700026407F050507407F05253F5A3CE73C5A1A
:103580007F3E1C1C08081C1C3E7F14227F22145FF7
:103590005F005F5F06097F017F006689956A606052
:1035A00060606094A2FFA29408047E040810207E4C
:1035B000201008082A1C08081C2A08081E101010D1
:1035C000100C1E0C1E0C30383E3830060E3E0E0617
:1035D000000000000000005F00000007000700146A
:1035E0007F147F14242A7F2A122313086462364929
:1035F0005620500008070300001C22410000412211
:103600001C002A1C7F1C2A08083E08080080703015
:103610000008080808080000606000201008040284
:103620003E5149453E00427F40007249494946218A
:1036300041494D331814127F1027454545393C4AFE
:103640004949314121110907364949493646494915
:10365000291E00001400000040340000000814225D
:1036600041141414141400412214080201590906CB
:103670003E415D594E7C1211127C7F494949363ECC
:10368000414141227F4141413E7F494949417F09B2
:103690000909013E414151737F0808087F00417FBD
:1036A00041002040413F017F081422417F404040BB
:1036B000407F021C027F7F0408107F3E4141413E53
:1036C0007F090909063E4151215E7F0919294626D5
:1036D0004949493203017F01033F4040403F1F20D9
:1036E00040201F3F4038403F6314081463030478B0
:1036F00004036159494D43007F41414102040810D0
:1037000020004141417F040201020440404040400A
:10371000000307080020545478407F284444383878
:1037200044444428384444287F38545454180008EA
:103730007E090218A4A49C787F0804047800447DC4
:1037400040002040403D007F1028440000417F4061
:10375000007C047804787C080404783844444438B5
:10376000FC1824241818242418FC7C080404084895
:103770005454542404043F44243C4040207C1C20E6
:1037800040201C3C4030403C44281028444C909041
:10379000907C4464544C440008364100000077009B
:1037A00000004136080002010204023C2623263CA8
:1037B0001EA1A161123A4040207A38545455592133
:1037C000555579412254547842215554784020541B
:1037D0005579400C1E527212395555555939545469
:1037E000545939555454580000457C410002457DD8
:1037F000420001457C407D1211127DF0282528F001
:103800007C545545002054547C547C0A097F49322D
:10381000494949323A4444443A324A4848303A41A4
:1038200041217A3A42402078009DA0A07D3D42424D
:10383000423D3D4040403D3C24FF2424487E4943D6
:10384000662B2FFC2F2BFF0929F620C0887E090349
:1038500020545479410000447D413048484A323870
:103860004040227A007A0A0A727D0D19317D26299C
:10387000292F28262929292630484D402038080894
:10388000080808080808382F10C8ACBA2F102834C8
:10389000FA00007B000008142A142222142A1408BB
:1038A0005500550055AA55AA55AAFF55FF55FF00CA
:1038B0000000FF00101010FF00141414FF0010107F
:1038C000FF00FF1010F010F0141414FC001414F793
:1038D00000FF0000FF00FF1414F404FC1414171080
:1038E0001F10101F101F1414141F00101010F000D0
:1038F0000000001F101010101F10101010F010000A
:103900000000FF101010101010101010FF10000019
:1039100000FF140000FF00FF00001F10170000FC54
:1039200004F414141710171414F404F40000FF0026
:10393000F714141414141414F700F71414141714AF
:1039400010101F101F141414F4141010F010F000B5
:10395000001F101F0000001F14000000FC140000D6
:10396000F010F01010FF10FF141414FF14101010BA
:103970001F00000000F010FFFFFFFFFFF0F0F0F06D
:10398000F0FFFFFF0000000000FFFF0F0F0F0F0F01
:103990003844443844FC4A4A4A347E02020606024D
:1039A0007E027E0263554941633844443C04407EB4
:1039B000201E2006027E020299A5E7A5991C2A492D
:1039C0002A1C4C7201724C304A4D4D3030487848B8
:1039D00030BC625A463D3E494949007E0101017EA4
:1039E0002A2A2A2A2A44445F444440514A444040F7
:1039F000444A51400000FF0103E080FF0000080836
:103A00006B6B083612362436060F090F06000018B5
:103A1000180000001010003040FF0101001F0101DC
:103A20001E00191D1712003C3C3C3C000000000029
:103A3000000000000000000001020304060708095E
:103A40000000000001020304683A000800000020A2
:103A50006C0000007E330008D43A00086C0000209F
:103A6000740600008E330008010000000000000012
:103A70000000000000000000000000000000000046
:103A80000000000001000000000000000000000035
:103A90000000000000000000000000000100000025
:103AA0000000000000000000000000000000000016
:103AB0000000000000000000030000000000000003
:103AC00002000000010000001000000000000000E3
:043AD0000024F400DA
:040000050800018965
:00000001FF
