:020000040800F2
:1000000018050020AD010008EB160008A510000837
:10001000E9160008B90200086D1B00080000000086
:10002000000000000000000000000000C5170008EC
:10003000BB020008000000000D170008C7170008E9
:10004000C7010008C7010008C7010008C701000870
:10005000C7010008C7010008C7010008C701000860
:10006000C7010008C7010008C7010008C701000850
:10007000C7010008C7010008C7010008C701000840
:10008000C7010008C7010008C70100080000000000
:10009000000000000000000000000000C701000890
:1000A000C7010008C7010008C7010008C701000810
:1000B000C7010008C7010008C7010008C701000800
:1000C000C7010008C7010008C7010008C7010008F0
:1000D000C7010008C7010008C701000800000000B0
:1000E000C7010008C7010008C701000800000000A0
:1000F000000000000000000000000000C701000830
:1001000000000000C7010008C7010008C70100087F
:1001100000000000000000000000000000000000DF
:10012000C7010008C7010008C7010008C70100088F
:10013000C7010008000000000000000000000000EF
:10014000000000000000000000000000C7010008DF
:10015000C7010008C7010008C7010008C70100085F
:10016000C7010008C70100080000000000000000EF
:10017000000000000000000000000000000000007F
:1001800000000000C701000800000000000000009F
:10019000C7010008C7010008DFF80CD000F07AF8AA
:1001A00000480047511C00081805002006488047F9
:1001B00006480047FEE7FEE7FEE7FEE7FEE7FEE74C
:1001C000FEE7FEE7FEE7FEE76D180008990100086C
:1001D0002DE9F05F0546002092469B46884606467C
:1001E000814640241BE0284641464746224600F00F
:1001F00041F853465A46C01A914110D31146184649
:10020000224600F028F82D1A67EB01084F462246D7
:100210000120002100F01FF817EB00094E41201EBD
:10022000A4F10104DFDC484631462A464346BDE8D6
:10023000F09F40EA01039B0703D009E008C9121FA1
:1002400008C0042AFAD203E011F8013B00F8013B90
:10025000521EF9D27047202A04DB203A00FA02F13C
:10026000002070479140C2F1200320FA03F31943A4
:1002700090407047202A04DB203A21FA02F0002146
:10028000704721FA02F3D040C2F1200291400843A6
:1002900019467047064C074D06E0E06840F0010340
:1002A00094E8070098471034AC42F6D3FFF778FF84
:1002B000F021000810220008FEE77047FEB54FF459
:1002C00000727F4980208DE807007E4B40227E49E6
:1002D0007E4800F03BFF022001F062F9002000F0B0
:1002E000F1FE28234FF62056DC0000212246084666
:1002F000009600F00DFF47F6EF35F0232246D2219D
:100300000020009500F004FF00211F23224608462C
:1003100001F0AAF81F232246F021002001F0A4F8E2
:100320001F232246D221002001F09EF81F232246DF
:100330002821002001F098F800211F23F022084610
:1003400001F09BF81F23F0220021204601F095F8D0
:100350000124CDE900644AF6E573122246215CA02F
:1003600001F0FEF8CDE900544FF6E0763346DE2288
:100370000A215FA001F0F4F8CDE900543346D722FA
:10038000D22164A001F0ECF8CDE900543346E42218
:10039000D72165A001F0E4F81F230F2214211E20AD
:1003A00001F0C4F84FF491751F230F221421284641
:1003B00001F0BCF83346072214211E2001F0B6F8E4
:1003C000334607221421284601F0B0F80025CDE974
:1003D00000544FF6FF7633463C22142156A001F01C
:1003E000BFF8CDE9005433465A22142152A001F03F
:1003F000B7F8CDE900543346782214214EA001F01D
:10040000AFF8CDE900543346962214214AA001F0FA
:10041000A7F8CDE900543346B422142146A001F0D8
:100420009FF8CDE9005433463222BE2145A001F0A9
:1004300097F8CDE90054334632224FF4817142A03F
:1004400001F08EF846234FF478449E0032463C215A
:10045000FA20009400F05CFE4FF4FC654623D222A3
:100460003C21B420009500F053FE642332465A210B
:10047000FA20009400F04CFE6423D2225A21B420CA
:10048000009500F045FE822332467821FA20009440
:1004900000F03EFE8223D2227821B420009500F0A5
:1004A00037FEA02332469621FA20009400F030FE59
:1004B000A023D2229621B420009500F029FEFEBD93
:1004C0000000024000080240000402407C000020BE
:1004D00053697374656D6120446F6D6F7469636FE8
:1004E00020646520496C756D696E6163696F6E008B
:1004F00053697374656D617320456C656374726FC5
:100500006E69636F73204469676974616C657320F9
:10051000000000004368726973746F706865722030
:10052000456E676120000000456E72697175652037
:100530004D6174656F73000046756E63696F6E651B
:10054000730000004F4E00004F46460070B5044651
:1005500000F0D8F80546601C02D004480078044436
:1005600000F0D0F8401BA042FAD370BD1400002068
:100570002DE9F84FDFF860B100224FF001084FF08D
:10058000030A4FF00F090BF1040E00BF0B6808FAC5
:1005900002F42340A3426ED14D68022D01D0122DEA
:1005A0000ED1D50800EB850CDCF820505607F70E6D
:1005B00009FA07F6B5430E69BE402E43CCF8206019
:1005C000066855000F790AFA05FC07F0030726EACA
:1005D0000C06AF40374307604E68012E05D0022E4F
:1005E00003D0112E01D0122E0ED18668CF6826EAD4
:1005F0000C06AF40374387604668A6430C79C4F3C6
:100600000014944034434460C6688C6826EA0C06A3
:10061000AC403443C4604C68E40056D52F4C256888
:1006200045F480452560246822F0030504F48044E5
:1006300000942B4C2E19D6F8084895072F0F09FA6D
:1006400007F5AC43274DA84201D1002515E0264D02
:10065000A84201D1012510E0244DA84201D1022574
:100660000BE0234DA84201D1032506E0214DA8420D
:1006700002D1042501E028E00725BD402543C6F846
:100680000858DBF800405D464E689C43F60300D5F1
:100690001C432C60DEF8004075464E689C43B60350
:1006A00000D51C432C600C4D08352C684E689C43CB
:1006B000F60200D51C432C60074D0C352C684E68A3
:1006C0009C43B60200D51C432C60521C102AFFF438
:1006D0005DAFBDE8F88F0000003C014044380240A7
:1006E00000300140000002400004024000080240C7
:1006F000000C0240001002400AB1816170470904F9
:10070000FBE70000014880687047000014000020EB
:10071000024881680278114481607047140000200B
:100720000B4810B5016841F400710160016841F4A3
:1007300080610160016841F480710160032000F074
:100740008BF8002000F006F800F024F8002010BD1F
:10075000003C024070B50D4D04464FF47A71287884
:10076000B1FBF0F00A490968B1FBF0F000F02BFC96
:1007700048B9102C07D200222146501E00F04CF838
:1007800000206C6070BD012070BD000014000020CE
:10079000200000201F4808B5016841F48041016035
:1007A000006800F4804000901A48001F016841F082
:1007B00080510160006800F080500090032000F03C
:1007C0004BF8002211466FF00B0000F025F80022D4
:1007D00011466FF00A0000F01FF8002211466FF07A
:1007E000090000F019F800221146501F00F014F81B
:1007F00000221146101F00F00FF800221146901E33
:1008000000F00AF80022BDE808401146501E00F032
:1008100003B8000044380240F0B40E4B1B680C468D
:10082000C3F30223C3F10705042D00D90425191DC4
:10083000072901D2002300E0DB1E012606FA05F19C
:10084000491E214099409E40761E16403143F0BC1F
:1008500000F04CBF0CED00E0064900F0070208680C
:100860004FF6FF03184040EA0220034A1043086095
:10087000704700000CED00E00000FA052DE9F0479C
:100880000E46050065D0DFF81481D8F80000F7B2F5
:1008900000F00F00B04207D288F80070D8F80000CE
:1008A00000F00F00B04254D128683D4C810712D5AA
:1008B000400703D5206840F4E05020602878000706
:1008C00003D5206840F4604020602068A96820F0CB
:1008D000F000084320602878C0072DD030496868B0
:1008E0000839012812D0022813D0032811D0096832
:1008F000890700292DDA216821F0030101432160D5
:10090000FFF700FF814641F2883A0EE0096889034B
:10091000EFE709688901ECE7FFF7F4FEA0EB0901B6
:10092000514502D90320BDE8F0872068696800F0CE
:100930000C00B0EB810FEFD1D8F80010404601F069
:100940000F01B14207D90770006800F00F00B042F4
:1009500001D00120E7E72878400705D52068E9683D
:1009600020F4E050084320602878000706D520686E
:10097000296920F4604040EAC100206000F03CF8A2
:100980002168084AC1F30311515CC8400649086058
:100990000020FFF7DFFE0020C5E70000003C02401A
:1009A00008380240D82100082000002001480068D3
:1009B00070470000200000200448054900680968CD
:1009C000044AC1F38221515CC840704720000020D6
:1009D00008380240E8210008044805490068096811
:1009E000044AC1F34231515CC840704720000020E6
:1009F00008380240E8210008154810B5006810F0DA
:100A00000C02144813D01449042A0FD0082A0ED11E
:100A10000F4C241F2268236802F03F025B0207D5B7
:100A20002068C0F38810A0FB010106E0084610BD55
:100A30002168C1F38811A1FB00010023FFF7C8FB67
:100A40002168C1F30141491C4900B0FBF1F010BD20
:100A5000083802400024F40040787D012DE9F84F69
:100A6000050076D02878DFF8F8B2BE4CC00749D030
:100A7000DBF800105846C1F38101012908D0006855
:100A8000C0F3810002280AD1201D0068400206D56B
:100A90002068800336D568680028E2D032E06868B4
:100AA000B0F5803F10D0B0F5A02F206810D020F412
:100AB00080302060206820F4802020606868A0B129
:100AC000FFF720FE06460CE0206840F48030F4E793
:100AD00040F480202060F7E7FFF714FE801B6428B5
:100AE00073D820688003F7D50CE0FFF70BFE0646AD
:100AF00005E000BFFFF706FE801B6428F0D82068E1
:100B00008003F7D42878DFF8608280074FF000096F
:100B10003ED5DBF80010584611F00C0F09D00068E4
:100B2000C0F3810002280BD18D48001F00684002ED
:100B300006D42068800715D5E868012809D111E09E
:100B4000E868B8B10120C8F80000FFF7DBFD0646F1
:100B500005E002E1FFF7D6FD801B0228C0D820681F
:100B60008007F7D52068296920F0F80040EAC10025
:100B700020600DE0C8F80090FFF7C4FD064604E0D1
:100B8000FFF7C0FD801B02281FD820688007F7D41C
:100B90002878000722D5724E744869696C3671B1A5
:100BA00001210160FFF7AEFD074604E0FFF7AAFD53
:100BB000C01B022809D830688007F7D50EE0C0F8BE
:100BC0000090FFF79FFD074605E083E0FFF79AFDE1
:100BD000C01B02287ED830688007F7D428784007E9
:100BE00068D5DFF87CA100270AF1380ADAF800009E
:100BF000C0000BD4DAF8001041F08051CAF80010A0
:100C0000DAF80000012700F080500090584E30685C
:100C1000C00510D4306840F480703060FFF772FD7A
:100C2000009005E0FFF76EFD0099401A022851D8A8
:100C30003068C005F6D54A4EA868683601280FD03E
:100C40000528306810D020F001003060306820F0B6
:100C500004003060A868B8B1FFF754FD00900FE0C1
:100C6000306840F00100F4E740F004003060F7E73E
:100C7000FFF748FD0099411A41F28830814264D85B
:100C800030688007F4D50EE0FFF73CFD009007E0E8
:100C9000FFF738FD0099411A41F28830814254D85B
:100CA00030688007F4D42FB1DAF8001021F08051B9
:100CB000CAF80010A869C0B3DBF80010C1F38101C5
:100CC00002294AD00228484607D0C8F86000FFF73A
:100CD00019FD00E039E005463AE04746C8F86000F3
:100CE000FFF710FD064604E0FFF70CFD801B02280D
:100CF0002BD820688001F7D4D5E907010843A96AF9
:100D00001C4A490802EB01416A6A41EA8211084320
:100D100095F82C1040EA01611148001F0160012084
:100D20003866FFF7EFFC054605E014E0FFF7EAFC44
:100D3000401B022809D820688001F7D50BE000BFCE
:100D4000FFF7E0FC401B022802D90320BDE8F88F22
:100D500020688001F4D40020F8E70120F6E70000C5
:100D6000083802400038024000004742800E4742E7
:100D7000007000400000FFFF70B5040005D00025A2
:100D8000A56294F8510010B106E0012070BD84F80E
:100D90005050204600F030F8022084F851002068BE
:100DA000016821F040010160D4E901010843D4E960
:100DB00003121143084361690843218B01F4007158
:100DC0000843E1690843216A0843A16A084321688E
:100DD0000860A069042101EA1040616A08432168A3
:100DE00048602068C16921F40061C1616565012026
:100DF00084F85100002070BD00B500680E4987B02E
:100E0000884216D10D480021026842F480520260E7
:100E1000006800F480500590E02000900220CDE9A9
:100E20000101032003900520049069460448FFF760
:100E30009FFB07B000BD0000003001404438024075
:100E4000000002402DE9F84F044690F850000026BB
:100E5000994617460D4601280DD04FF0010B84F836
:100E600050B0FFF74FFC804694F85100B24601287D
:100E700004D0022694E00220BDE8F88F002D7BD03C
:100E8000002F79D0032084F85100C4F854A02563C2
:100E9000A786E786C4F838A0A4F83CA0A4F83EA032
:100EA000C4F844A0C4F840A0A068B0F5004F04D135
:100EB0002068016841F480410160206801684906AA
:100EC00003D4016841F040010160E068B0F5006FB3
:100ED000606804D030B3E08E012823D03EE010B12A
:100EE000E08E01281AD135F8021B206805E0206841
:100EF0008168890706D535F8021BC160E08E401E67
:100F0000E0860BE0B9F1000F34D0B9F1FF3F05D016
:100F1000FFF7F8FBA0EB080149452BD2E08E002833
:100F2000E5D11EE0216815F8010B087306E0206882
:100F30008168890706D515F8011B0173E08E401EF4
:100F4000E0860BE0B9F1000F14D0B9F1FF3F05D0F6
:100F5000FFF7D8FBA0EB080149450BD2E08E002833
:100F6000E5D14B46012202212046CDF8008000F059
:100F7000DEFB10B1032613E011E04246494620464D
:100F800000F0C5FB18B101262020606508E0A068CC
:100F900018B92068C16880680090606D00B10126B2
:100FA00084F851B084F850A0304665E74FF0E02156
:100FB0000428086903D020F004000861704740F05D
:100FC0000400FAE7704710B5401EB0F1807F01D3EE
:100FD000012010BD4FF0E02460610F21601700F088
:100FE00085FB0020A06107202061002010BD10B506
:100FF000FFF7E8FF10BD70B5040004D094F8390085
:10100000002510B106E0012070BD84F8385020465C
:1010100000F022F8242084F839002068C16821F407
:101020000051C160204600F04BFC2068016921F4AA
:10103000904101612068416921F02A0141612068E5
:10104000C16841F40051C160E563202084F8390093
:1010500084F83A00002070BD00B500680E4987B0E2
:10106000884216D10D48016841F4003101600068E2
:10107000694600F4003005900C2000900220019099
:101080000120029003200390072004900448FFF7FA
:101090006FFA07B000BD0000004400404038024035
:1010A00000000240FEE710B514460B46024600F071
:1010B00031F9200A00F010F9E0B2BDE8104000F06C
:1010C0000BB9000070B5054610484FF4963440F255
:1010D0003F120178012906D0032904D0022905D046
:1010E000042903D007E01346EF2200E0EF2300219C
:1010F000084600F00FF92E0A3046641E00F0ECF8A6
:10110000E8B200F0E9F8002CF6D170BD0000002034
:1011100070B5141A5E1A641C761C74434FF496362C
:10112000049DB44200D934469BB292B289B280B2D7
:1011300000F0F0F82E0A06E03046641E00F0CCF80D
:10114000E8B200F0C9F8002CF6D170BD2DE9F047E7
:10115000884608A9154691E8C004014699465822D8
:101160004C48FFF766F84C4C40462946C4F80880C6
:101170006580C4F80C90A6800122FFF7BDFA2761B4
:10118000A4F806A0012251463846FFF7B5FA01201F
:1011900000F084F86420FFF7D9F9282000F07EF8E9
:1011A000C02000F07BF8262000F096F8C12000F067
:1011B00075F8112000F090F8C52000F06FF8352088
:1011C00000F08AF83E2000F087F8C72000F066F8AB
:1011D000BE2000F081F8362000F060F8482000F0D2
:1011E0007BF83A2000F05AF8552000F075F8B1204D
:1011F00000F054F8002000F06FF81F2000F06CF8A9
:101200002A2000F04BF8002000F066F8002000F0E3
:1012100063F8002000F060F8EF2000F05DF82B206C
:1012200000F03CF8002000F057F8002000F054F8DF
:10123000012000F051F83F2000F04EF8342000F07B
:101240002DF8B72000F02AF8072000F045F8B62066
:1012500000F024F80A2000F03FF8822000F03CF86B
:10126000272000F039F8002000F036F8112000F0B7
:1012700015F86420FFF76AF9292000F00FF86420C0
:10128000FFF764F92C2000F009F8BDE8F0470520CD
:10129000FFF75CB9240000200000002038B50C4C9A
:1012A0008DF800000022A188E068FFF725FA0022EF
:1012B0006188A068FFF720FA0523012269460548E6
:1012C000FFF7C0FD01226188A068FFF715FA38BD5D
:1012D000000000202400002038B50C4C8DF80000E0
:1012E0000122A188E068FFF707FA00226188A06860
:1012F000FFF702FA0523012269460548FFF7A2FD20
:1013000001226188A068FFF7F7F938BD00000020CE
:10131000240000202DE9F04107461C4615460E46E4
:101320002A20FFF7BBFF380AFFF7D6FFF8B2FFF716
:10133000D3FF280AFFF7D0FFE8B2FFF7CDFF2B203D
:10134000FFF7ACFF300AFFF7C7FFF0B2FFF7C4FFAB
:10135000200AFFF7C1FFE0B2FFF7BEFFBDE8F04192
:101360002C20FFF79BBF00002DE9FE4F9A463C4B17
:1013700088460D9C197881464FF4A07504EB440013
:10138000012911D003290FD0B8F1F00F5BDAA9457C
:1013900059DA08EB4000012855D409EBC4000128B4
:1013A00051D4587860B10FE0B9F1F00F4BDAA8458D
:1013B00049DA09EB4000012845D408EBC400EEE708
:1013C000B02A01D3521CD2B204EB0900029008F1FA
:1013D00001000190234902EB8200002500EB010B84
:1013E00001E0052D09D01BF805700026F8070ED086
:1013F000012C04D0CDF800A00FE00027F5E708EBA2
:10140000060081B209EB050080B2524624E00C9838
:1014100050450FD0012C18D00090029806FB0441D3
:1014200005FB040201980B1806FB048105FB0490E0
:10143000FFF76EFE761C7F0876B2082ED6DB6D1C99
:101440006DB2062DCDDBBDE8FE8F08EB060081B244
:1014500009EB050080B20C9AFFF725FEEAE70000D1
:1014600000000020D81C000808B50244521E00935A
:1014700012B20B4600F00AF808BD08B50A44521E25
:10148000009313B2024600F001F808BD2DE9F05FA9
:101490000C4606461546191BA2EB060000D549422C
:1014A000002800DA4042814207DD304626461D46CC
:1014B0004FF001080446134601E04FF00008AE4229
:1014C00005DD30462E46054620461C460346A81B31
:1014D0000FFA80F9181B00D540420FFA80FB09EB88
:1014E000D97047109C4201DA012001E04FF0FF3033
:1014F000824617E0B8F1000F02D0B1B2A0B201E00D
:10150000A1B2B0B20A9AFFF7CEFDA7EB0B0007B26B
:10151000002F05DA04EB0A0004B207EB090007B25A
:10152000761C36B2AE42E5DDBDE8F09F2DE9FC4108
:1015300007461446012000EB440002B20D46081B8A
:1015400001B21E463846FFF798FF0020CDE900069D
:10155000032322462946384600F018FBBDE8FC81EB
:101560002DE9FC5F0746DDE90C9606EB46004500D9
:101570009B469246884600240DE000BF05FB048090
:10158000CDE9009600B25B465146FFF7EDFE641CC4
:10159000A4B2282C02D23A5D002AEFD1BDE8FC9F0C
:1015A00010B501221349012805D0022809D00328CB
:1015B0000ED0042813D00A703620FFF76FFE882063
:1015C00013E0022008703620FFF768FE28200CE0A8
:1015D000032008703620FFF761FE482005E0042054
:1015E00008703620FFF75AFEE820BDE81040FFF7EC
:1015F00073BE0000000000202DE9F043264887B0AC
:101600000024016841F001010160016801F001015D
:101610000591016841F004010160016801F00401D5
:101620000591016841F00201016000681B4F00F064
:1016300002000590002280213846FFF75DF8DFF8B0
:1016400060807E15002231464046FFF755F8DFF8EE
:101650005490002240214846FFF74EF88020009029
:101660000125CDE90154694638460394FEF780FF11
:101670000096CDE90154694640460394FEF778FF91
:1016800040200090CDE90154694648460394FEF796
:101690006FFF07B0BDE8F083303802400008024019
:1016A00000000240000402400E4810B50C490160E1
:1016B0004FF48271416000218160C1604FF400727B
:1016C0000161C0E90512C1610162416281620A21C2
:1016D000C162FFF751FB002800D0FEE710BD0000FB
:1016E000003001407C000020FEE770470907090E2A
:1016F000002806DA00F00F0000F1E02080F8141D49
:10170000704700F1E02080F800147047704738B54A
:101710000B46009204460022802100F008F80028C1
:1017200004D0606D40F020006065032038BD2DE9D5
:10173000F0411D4617460E460446DDF8188035E098
:10174000681C33D02DB1FEF7DDFFA0EB0800A842E6
:101750002CD32068416821F0E00141606068B0F559
:10176000827F0BD1A068B0F5004F02D0B0F5806F3A
:1017700004D12068016821F040010160A06AB0F541
:10178000005F0AD1206801684DF6FF7211400160C8
:101790002068016841F400510160012084F8510083
:1017A000002084F850000320BDE8F08120688068A4
:1017B00036EA000004D00020B842C1D10020F3E78F
:1017C0000120F9E7704710B5FEF7A2FFBDE8104011
:1017D000FFF70DBC30B5234893B00024016841F0F9
:1017E00080510160006800F0805011901E4801682F
:1017F00041F4404101600068022500F4404011902E
:10180000012003901020009506950490CDE9074033
:10181000C020CDE9090504200B906846FFF71EF9AA
:1018200000B1FEE70F20CDE90C054FF48050CDE963
:101830000E4003210CA81094FFF720F800B1FEE73A
:10184000FFF7B4F84FF47A71B0FBF1F0FFF7BBFB90
:101850000420FFF7ABFB00221146501EFEF7DCFF11
:1018600013B030BD4038024000700040104801689D
:1018700041F4700101600F48016841F0010101600D
:101880000C4A00210832116002680B4B1A400260BA
:10189000031D0A4A1A60026822F480220260054889
:1018A0000C3001600249580680390860704700001A
:1018B00088ED00E000380240FFFFF6FE1030002403
:1018C0002DE9F04104460068016921F44052E168C5
:1018D000114301612168C86849F20C629043236991
:1018E000A268E5691A4363692B431A430243CA603D
:1018F0002168486920F44072A06910434861E16999
:101900006425B1F5004F9748974A21684FF0320897
:101910003FD0914201D081427CD1FFF75DF800EBCE
:10192000C00101EB001061688900B0FBF1F6FFF720
:1019300053F800EBC00101EB001061688900B0FBB7
:10194000F1F0B0FBF5F06FF01801484306EB8001B1
:1019500008EB0110B0FBF5F000F0F006FFF73CF8E3
:1019600000EBC00101EB001061688900B0FBF1F0F1
:10197000B0FBF5F006EB0016FFF72EF800EBC00108
:1019800001EB001061688900B0FBF1F7FFF724F864
:10199000D2E0914201D081423DD1FFF71DF800EB2A
:1019A000C00101EB001061684900B0FBF1F0B0FB31
:1019B000F5F00601FFF710F800EBC00101EB001095
:1019C00061684900B0FBF1F7FFF706F800EBC001D2
:1019D00001EB001061684900B0FBF1F0B0FBF5F0DD
:1019E0006FF01801484307EB800108EBC100B0FB22
:1019F000F5F000F0F80006EB4006FEF7EDFF00EB17
:101A0000C00101EB001061684900B0FBF1F7FEF77F
:101A1000E3FF3CE055E0FEF7CFFF00EBC00101EB38
:101A2000001061684900B0FBF1F0B0FBF5F0060171
:101A3000FEF7C2FF00EBC00101EB00106168490036
:101A4000B0FBF1F7FEF7B8FF00EBC00101EB0010AF
:101A500061684900B0FBF1F0B0FBF5F06FF01801E0
:101A6000484307EB800108EBC100B0FBF5F000F044
:101A7000F80006EB4006FEF79FFF00EBC00101EB0C
:101A8000001061684900B0FBF1F7FEF795FF00EB2D
:101A9000C00101EB001061684900B0FBF1F0B0FB40
:101AA000F5F06FF01801484307EB800108EBC10027
:101AB000B0FBF5F000F00700216830448860BDE815
:101AC000F081FEF779FF00EBC00101EB00106168C7
:101AD0008900B0FBF1F6FEF76FFF00EBC00101EBF0
:101AE000001061688900B0FBF1F0B0FBF5F06FF019
:101AF0001801484306EB800108EB0110B0FBF5F03C
:101B000000F0F006FEF758FF00EBC00101EB0010FB
:101B100061688900B0FBF1F0B0FBF5F006EB001650
:101B2000FEF74AFF00EBC00101EB0010616889007D
:101B3000B0FBF1F7FEF740FF00EBC00101EB001036
:101B400061688900B0FBF1F0B0FBF5F06FF01801AF
:101B5000484307EB800108EB0110B0FBF5F000F003
:101B60000F00A9E70014014000100140FEE702E069
:101B700008C8121F08C1002AFAD170477047002018
:101B800001E001C1121F002AFBD170472DE9FF5F60
:101B90008146C2F1010006B2C2EBC230400001270B
:101BA00088460FFA80FB00251446DDF838A04AE08D
:101BB000002E08DB0BF102000FFA80FB641E06EB1F
:101BC0000B0024B206B2BF1C6D1C3FB2F01906B266
:101BD00003982DB2C00719D00AEB4400401C02B292
:101BE000A8EB040001B209EB050000B20F9BFFF760
:101BF00044FC0AEB4500401C02B2A8EB050001B210
:101C000009EB040000B20F9BFFF737FC0398800735
:101C100019D50AEB4400401C02B2A8EB040001B243
:101C2000A9EB050000B20F9BFFF727FC0AEB45006C
:101C3000401C02B2A8EB050001B2A9EB040000B2FF
:101C40000F9BFFF71AFCA542B2DBBDE8FF9F000027
:101C50001CB5FEF765FDFFF7BDFDFFF7CDFCFFF7F7
:101C600023FD1C481A49002501604FF4E131C0E909
:101C700001150C21C560C0E904518561C561FFF7FC
:101C8000BAF900B1FEE7FEF719FB00273C463E46D5
:101C90004FF002084FF6FF796420FEF757FCCDE9BC
:101CA00000587F1C6421FAB24B460846641CFFF7BB
:101CB0005BFB0B2C02D204F12F0600E00024CDE9DF
:101CC0000058F2B24B4678216420FFF74DFBE3E762
:101CD00000440040D400002000000000003E5B4FA4
:101CE0005B3E3E6B4F6B3E1C3E7C3E1C183C7E3C7C
:101CF000181C577D571C1C5E7F5E1C00183C18008A
:101D0000FFE7C3E7FF0018241800FFE7DBE7FF3019
:101D1000483A060E2629792926407F050507407F87
:101D200005253F5A3CE73C5A7F3E1C1C08081C1CFA
:101D30003E7F14227F22145F5F005F5F06097F01F0
:101D40007F006689956A606060606094A2FFA294DB
:101D500008047E040810207E201008082A1C0808A9
:101D60001C2A08081E101010100C1E0C1E0C3038F7
:101D70003E3830060E3E0E06000000000000005FF8
:101D800000000007000700147F147F14242A7F2A14
:101D900012231308646236495620500008070300D6
:101DA000001C2241000041221C002A1C7F1C2A0822
:101DB000083E080800807030000808080808000085
:101DC00060600020100804023E5149453E00427FF9
:101DD000400072494949462141494D331814127F48
:101DE0001027454545393C4A4949314121110907E8
:101DF0003649494936464949291E00001400000069
:101E0000403400000008142241141414141400413A
:101E100022140802015909063E415D594E7C1211F7
:101E2000127C7F494949363E414141227F4141412F
:101E30003E7F494949417F090909013E41415173AA
:101E40007F0808087F00417F41002040413F017F1B
:101E5000081422417F404040407F021C027F7F04E3
:101E600008107F3E4141413E7F090909063E41512C
:101E7000215E7F09192946264949493203017F011C
:101E8000033F4040403F1F2040201F3F4038403F1D
:101E9000631408146303047804036159494D430033
:101EA0007F4141410204081020004141417F04026A
:101EB0000102044040404040000307080020545401
:101EC00078407F28444438384444442838444428DF
:101ED0007F385454541800087E090218A4A49C7832
:101EE0007F0804047800447D40002040403D007F8E
:101EF0001028440000417F40007C047804787C086E
:101F00000404783844444438FC1824241818242441
:101F100018FC7C08040408485454542404043F4426
:101F2000243C4040207C1C2040201C3C4030403C55
:101F300044281028444C9090907C4464544C4400B5
:101F40000836410000007700000041360800020119
:101F50000204023C2623263C1EA1A161123A404005
:101F6000207A385454555921555579412254547882
:101F700042215554784020545579400C1E5272121B
:101F800039555555593954545459395554545800A4
:101F900000457C410002457D420001457C407D12A8
:101FA00011127DF0282528F07C545545002054540A
:101FB0007C547C0A097F4932494949323A444444B5
:101FC0003A324A4848303A4141217A3A42402078F0
:101FD000009DA0A07D3D4242423D3D4040403D3CF1
:101FE00024FF2424487E4943662B2FFC2F2BFF0916
:101FF00029F620C0887E090320545479410000440A
:102000007D413048484A32384040227A007A0A0AF4
:10201000727D0D19317D2629292F28262929292667
:1020200030484D4020380808080808080808382FAC
:1020300010C8ACBA2F102834FA00007B0000081436
:102040002A142222142A14085500550055AA55AA0C
:1020500055AAFF55FF55FF000000FF00101010FFAC
:1020600000141414FF001010FF00FF1010F010F007
:10207000141414FC001414F700FF0000FF00FF14F8
:1020800014F404FC141417101F10101F101F141444
:10209000141F00101010F0000000001F101010108E
:1020A0001F10101010F010000000FF101010101082
:1020B00010101010FF10000000FF140000FF00FFC0
:1020C00000001F10170000FC04F41414171017145C
:1020D00014F404F40000FF00F7141414141414147E
:1020E000F700F7141414171410101F101F141414F1
:1020F000F4141010F010F000001F101F0000001F5B
:1021000014000000FC140000F010F01010FF10FF8D
:10211000141414FF141010101F00000000F010FF22
:10212000FFFFFFFFF0F0F0F0F0FFFFFF0000000006
:1021300000FFFF0F0F0F0F0F3844443844FC4A4A8A
:102140004A347E02020606027E027E02635549413F
:10215000633844443C04407E201E2006027E020276
:1021600099A5E7A5991C2A492A1C4C7201724C308A
:102170004A4D4D303048784830BC625A463D3E4961
:102180004949007E0101017E2A2A2A2A2A44445F05
:10219000444440514A444040444A51400000FF01F9
:1021A00003E080FF000008086B6B08361236243607
:1021B000060F090F0600001818000000101000306C
:1021C00040FF0101001F01011E00191D1712003CF4
:1021D0003C3C3C000000000000000000000000004B
:1021E00001020304060708090000000001020304BD
:1021F0001022000800000020240000006E1B0008D0
:102200003422000824000020F40400007E1B000893
:1022100001000000000000000000000000000000BD
:10222000000000000100000010000000000000009D
:042230000024F40092
:040000050800019955
:00000001FF
